{
  "_format": "hh-sol-artifact-1",
  "contractName": "TestLib_SecureMerkleTrie",
  "sourceName": "contracts/test-libraries/trie/TestLib_SecureMerkleTrie.sol",
  "abi": [
    {
      "inputs": [
        {
          "internalType": "bytes",
          "name": "_key",
          "type": "bytes"
        },
        {
          "internalType": "bytes",
          "name": "_proof",
          "type": "bytes"
        },
        {
          "internalType": "bytes32",
          "name": "_root",
          "type": "bytes32"
        }
      ],
      "name": "get",
      "outputs": [
        {
          "internalType": "bool",
          "name": "",
          "type": "bool"
        },
        {
          "internalType": "bytes",
          "name": "",
          "type": "bytes"
        }
      ],
      "stateMutability": "pure",
      "type": "function"
    },
    {
      "inputs": [
        {
          "internalType": "bytes",
          "name": "_key",
          "type": "bytes"
        },
        {
          "internalType": "bytes",
          "name": "_value",
          "type": "bytes"
        }
      ],
      "name": "getSingleNodeRootHash",
      "outputs": [
        {
          "internalType": "bytes32",
          "name": "",
          "type": "bytes32"
        }
      ],
      "stateMutability": "pure",
      "type": "function"
    },
    {
      "inputs": [
        {
          "internalType": "bytes",
          "name": "_key",
          "type": "bytes"
        },
        {
          "internalType": "bytes",
          "name": "_value",
          "type": "bytes"
        },
        {
          "internalType": "bytes",
          "name": "_proof",
          "type": "bytes"
        },
        {
          "internalType": "bytes32",
          "name": "_root",
          "type": "bytes32"
        }
      ],
      "name": "update",
      "outputs": [
        {
          "internalType": "bytes32",
          "name": "",
          "type": "bytes32"
        }
      ],
      "stateMutability": "pure",
      "type": "function"
    },
    {
      "inputs": [
        {
          "internalType": "bytes",
          "name": "_key",
          "type": "bytes"
        },
        {
          "internalType": "bytes",
          "name": "_proof",
          "type": "bytes"
        },
        {
          "internalType": "bytes32",
          "name": "_root",
          "type": "bytes32"
        }
      ],
      "name": "verifyExclusionProof",
      "outputs": [
        {
          "internalType": "bool",
          "name": "",
          "type": "bool"
        }
      ],
      "stateMutability": "pure",
      "type": "function"
    },
    {
      "inputs": [
        {
          "internalType": "bytes",
          "name": "_key",
          "type": "bytes"
        },
        {
          "internalType": "bytes",
          "name": "_value",
          "type": "bytes"
        },
        {
          "internalType": "bytes",
          "name": "_proof",
          "type": "bytes"
        },
        {
          "internalType": "bytes32",
          "name": "_root",
          "type": "bytes32"
        }
      ],
      "name": "verifyInclusionProof",
      "outputs": [
        {
          "internalType": "bool",
          "name": "",
          "type": "bool"
        }
      ],
      "stateMutability": "pure",
      "type": "function"
    }
  ],
  "bytecode": "0x608060405234801561001057600080fd5b50612476806100206000396000f3fe608060405234801561001057600080fd5b50600436106100575760003560e01c806304bc7eec1461005c578063120c4a221461008557806349fba193146100a6578063cd4a7695146100c6578063e8e72100146100d9575b600080fd5b61006f61006a366004612276565b6100ec565b60405161007c91906123a2565b60405180910390f35b610098610093366004612276565b610103565b60405161007c9291906123ad565b6100b96100b4366004612216565b61011e565b60405161007c919061236a565b6100b96100d43660046122df565b610133565b61006f6100e73660046122df565b61014c565b60006100f984848461015a565b90505b9392505050565b6000606061011285858561017c565b91509150935093915050565b600061012a83836101a5565b90505b92915050565b6000610141858585856101bd565b90505b949350505050565b6000610141858585856101e1565b600080610166856101fb565b905061017381858561022c565b95945050505050565b60006060600061018b866101fb565b9050610198818686610245565b9250925050935093915050565b6000806101b1846101fb565b90506101448184610318565b6000806101c9866101fb565b90506101d78186868661033c565b9695505050505050565b6000806101ed866101fb565b90506101d7818686866103d7565b60608180519060200120604051602001610215919061236a565b60405160208183030381529060405290505b919050565b60008061023a858585610245565b501595945050505050565b60006060600061025485610408565b90506000806000610266848a896104de565b8151929550909350915015808061027a5750815b6102cb576040805162461bcd60e51b815260206004820152601a60248201527f50726f76696465642070726f6f6620697320696e76616c69642e000000000000604482015290519081900360640190fd5b6000816102e75760405180602001604052806000815250610306565b6103068660018703815181106102f957fe5b6020026020010151610884565b919b919a509098505050505050505050565b600061032c610326846108a0565b8361099c565b5180516020909101209392505050565b6040805180820190915260018152600160ff1b60209091015260007f56e81f171bcc55a6ff8345e692c0f86e5b48e01b996cadc001622fb5e363b421821415610390576103898585610318565b9050610144565b600061039b84610408565b90506000806103ab8389876104de565b509150915060006103be8484848b610a35565b90506103ca818a610d4d565b9998505050505050505050565b60008060006103e7878686610245565b915091508180156103fd57506103fd8682610ea6565b979650505050505050565b6060600061041583610ebc565b9050600081516001600160401b038111801561043057600080fd5b5060405190808252806020026020018201604052801561046a57816020015b61045761216e565b81526020019060019003908161044f5790505b50905060005b82518110156104d657600061049784838151811061048a57fe5b6020026020010151610ecf565b905060405180604001604052808281526020016104b383610ebc565b8152508383815181106104c257fe5b602090810291909101015250600101610470565b509392505050565b600060608180806104ee876108a0565b9050856000806104fc61216e565b60005b8c5181101561085c578c818151811061051457fe5b602002602001015191508284019350600187019650836000141561058857815180516020909101208514610583576040805162461bcd60e51b8152602060048201526011602482015270092dcecc2d8d2c840e4dedee840d0c2e6d607b1b604482015290519081900360640190fd5b61064f565b8151516020116105ef57815180516020909101208514610583576040805162461bcd60e51b815260206004820152601b60248201527f496e76616c6964206c6172676520696e7465726e616c20686173680000000000604482015290519081900360640190fd5b846105fd8360000151610f55565b1461064f576040805162461bcd60e51b815260206004820152601a60248201527f496e76616c696420696e7465726e616c206e6f64652068617368000000000000604482015290519081900360640190fd5b602082015151601114156106be57855184141561066b5761085c565b600086858151811061067957fe5b602001015160f81c60f81b60f81c9050600083602001518260ff168151811061069e57fe5b602002602001015190506106b181610f89565b9650600194505050610854565b600282602001515114156108075760006106d783610fbf565b90506000816000815181106106e857fe5b016020015160f81c90506001811660020360006107088460ff8416610fdd565b905060006107168b8a610fdd565b90506000610724838361100e565b905060ff85166002148061073b575060ff85166003145b1561076d578083511480156107505750808251145b1561075a57988901985b50600160ff1b995061085c945050505050565b60ff85161580610780575060ff85166001145b156107d057825181146107a05750600160ff1b995061085c945050505050565b6107c188602001516001815181106107b457fe5b6020026020010151610f89565b9a509750610854945050505050565b60405162461bcd60e51b81526004018080602001828103825260268152602001806124446026913960400191505060405180910390fd5b6040805162461bcd60e51b815260206004820152601d60248201527f526563656976656420616e20756e706172736561626c65206e6f64652e000000604482015290519081900360640190fd5b6001016104ff565b50600160ff1b84148661086f8786610fdd565b909e909d50909b509950505050505050505050565b6020810151805160609161012d91600019810190811061048a57fe5b6060600082516002026001600160401b03811180156108be57600080fd5b506040519080825280601f01601f1916602001820160405280156108e9576020820181803683370190505b50905060005b835181101561099557600484828151811061090657fe5b602001015160f81c60f81b6001600160f81b031916901c82826002028151811061092c57fe5b60200101906001600160f81b031916908160001a905350601084828151811061095157fe5b016020015160f81c8161096057fe5b0660f81b82826002026001018151811061097657fe5b60200101906001600160f81b031916908160001a9053506001016108ef565b5092915050565b6109a461216e565b60408051600280825260608201909252600091816020015b60608152602001906001900390816109bc57905050905060006109e0856001611074565b90506109f36109ee826111cb565b61129b565b82600081518110610a0057fe5b6020026020010181905250610a148461129b565b82600181518110610a2157fe5b602002602001018190525061017382611304565b606060008390506000866001870381518110610a4d57fe5b602002602001015190506000610a628261133c565b6040805160038082526080820190925291925060009190816020015b610a8661216e565b815260200190600190039081610a7e579050509050600084516000148015610ab957506002836002811115610ab757fe5b145b15610aef57610ad0610aca85611412565b8861099c565b828281518110610adc57fe5b6020908102919091010152600101610d30565b6000836002811115610afd57fe5b1415610b63578451610b3257610b138488611425565b828281518110610b1f57fe5b6020908102919091010152600101610b5e565b83828281518110610b3f57fe5b6020026020010181905250600181019050610ad0610aca866001610fdd565b610d30565b6000610b6e85611412565b90506000610b7c828861100e565b90508015610bdd576000610b9283600084611470565b9050610ba681610ba18c6115c1565b611602565b858581518110610bb257fe5b6020026020010181905250600184019350610bcd8383610fdd565b9250610bd98883610fdd565b9750505b6000610be7611646565b9050825160001415610c0c57610c0581610c0089610884565b611425565b9050610ca4565b600083600081518110610c1b57fe5b016020015160f81c9050610c30846001610fdd565b93506002876002811115610c4057fe5b1415610c7b576000610c5a85610c558b610884565b61099c565b9050610c738383610c6e84600001516115c1565b6116d3565b925050610ca2565b835115610c91576000610c5a85610ba18b610884565b610c9f8282610c6e8b610884565b91505b505b8751610cd957610cb4818b611425565b905080858581518110610cc357fe5b6020026020010181905250600184019350610d2c565b610ce4886001610fdd565b975080858581518110610cf357fe5b6020026020010181905250600184019350610d0e888b61099c565b858581518110610d1a57fe5b60200260200101819052506001840193505b5050505b610d3f8a60018b03848461172c565b9a9950505050505050505050565b600080610d59836108a0565b9050610d6361216e565b84516000906060905b8015610e9157876001820381518110610d8157fe5b60200260200101519350610d948461133c565b92506002836002811115610da457fe5b1415610dcf576000610db585611412565b9050610dc78660008351895103611470565b955050610e7b565b6001836002811115610ddd57fe5b1415610e1d576000610dee85611412565b9050610e008660008351895103611470565b835190965015610e1757610e148184611602565b94505b50610e7b565b6000836002811115610e2b57fe5b1415610e7b57815115610e7b57600085600187510381518110610e4a57fe5b602001015160f81c60f81b60f81c9050610e6a8660006001895103611470565b9550610e778582856116d3565b9450505b8351610e86906115c1565b915060001901610d6c565b50509051805160209091012095945050505050565b8051602091820120825192909101919091201490565b606061012d610eca8361180e565b611833565b60606000806000610edf856119a9565b919450925090506000816001811115610ef457fe5b14610f46576040805162461bcd60e51b815260206004820152601860248201527f496e76616c696420524c502062797465732076616c75652e0000000000000000604482015290519081900360640190fd5b61017385602001518484611cd2565b6000602082511015610f6c57506020810151610227565b818060200190516020811015610f8157600080fd5b505192915050565b60006060602083600001511015610faa57610fa383611d83565b9050610fb6565b610fb383610ecf565b90505b6100fc81610f55565b606061012d610fd8836020015160008151811061048a57fe5b6108a0565b60608183510360001415611000575060408051602081019091526000815261012d565b61012a838384865103611470565b6000805b8084511180156110225750808351115b8015611067575082818151811061103557fe5b602001015160f81c60f81b6001600160f81b03191684828151811061105657fe5b01602001516001600160f81b031916145b1561012a57600101611012565b6060600082611084576000611087565b60025b90506000600285518161109657fe5b06905060008160020360ff166001600160401b03811180156110b757600080fd5b506040519080825280601f01601f1916602001820160405280156110e2576020820181803683370190505b50905081830160f81b816000815181106110f857fe5b60200101906001600160f81b031916908160001a90535080866040516020018083805190602001908083835b602083106111435780518252601f199092019160209182019101611124565b51815160209384036101000a600019018019909216911617905285519190930192850191508083835b6020831061118b5780518252601f19909201916020918201910161116c565b6001836020036101000a03801982511681845116808217855250505050505090500192505050604051602081830303815290604052935050505092915050565b6060600060028351816111da57fe5b046001600160401b03811180156111f057600080fd5b506040519080825280601f01601f19166020018201604052801561121b576020820181803683370190505b50905060005b81518110156109955783816002026001018151811061123c57fe5b602001015160f81c60f81b600485836002028151811061125857fe5b602001015160f81c60f81b6001600160f81b031916901b1782828151811061127c57fe5b60200101906001600160f81b031916908160001a905350600101611221565b606080825160011480156112c357506080836000815181106112b957fe5b016020015160f81c105b156112cf57508161012d565b6112db83516080611d8e565b836040516020016112ed929190612373565b604051602081830303815290604052905092915050565b61130c61216e565b600061131783611ede565b9050604051806040016040528082815260200161133383610ebc565b90529392505050565b6020810151516000906011141561135557506000610227565b600282602001515114156113d157600061136e83610fbf565b905060008160008151811061137f57fe5b016020015160f81c9050600281148061139b575060ff81166003145b156113ab57600292505050610227565b60ff811615806113be575060ff81166001145b156113ce57600192505050610227565b50505b6040805162461bcd60e51b8152602060048201526011602482015270496e76616c6964206e6f6465207479706560781b604482015290519081900360640190fd5b606061012d61142083610fbf565b611f22565b61142d61216e565b60006114388361129b565b90506114438161180e565b60208501518051600019810190811061145857fe5b60200260200101819052506101448460200151611f6b565b60608182601f0110156114bb576040805162461bcd60e51b815260206004820152600e60248201526d736c6963655f6f766572666c6f7760901b604482015290519081900360640190fd5b828284011015611503576040805162461bcd60e51b815260206004820152600e60248201526d736c6963655f6f766572666c6f7760901b604482015290519081900360640190fd5b8183018451101561154f576040805162461bcd60e51b8152602060048201526011602482015270736c6963655f6f75744f66426f756e647360781b604482015290519081900360640190fd5b60608215801561156e57604051915060008252602082016040526115b8565b6040519150601f8416801560200281840101858101878315602002848b0101015b818310156115a757805183526020928301920161158f565b5050858452601f01601f1916604052505b50949350505050565b60606020825110156115d4575080610227565b8180519060200120604051602001808281526020019150506040516020818303038152906040529050610227565b61160a61216e565b60408051600280825260608201909252600091816020015b606081526020019060019003908161162257905050905060006109e0856000611074565b61164e61216e565b6040805160118082526102408201909252600091816020015b606081526020019060019003908161166757905050905060005b81518110156116c357604051806040016040528060018152602001600160ff1b8152508282815181106116b057fe5b6020908102919091010152600101611681565b506116cd81611304565b91505090565b6116db61216e565b600060208351106116f4576116ef8361129b565b6116f6565b825b90506117018161180e565b85602001518560ff168151811061171457fe5b60200260200101819052506101738560200151611f6b565b606060008285016001600160401b038111801561174857600080fd5b5060405190808252806020026020018201604052801561178257816020015b61176f61216e565b8152602001906001900390816117675790505b50905060005b858110156117c35786818151811061179c57fe5b60200260200101518282815181106117b057fe5b6020908102919091010152600101611788565b5060005b83811015611804578481815181106117db57fe5b602002602001015182878301815181106117f157fe5b60209081029190910101526001016117c7565b5095945050505050565b611816612188565b506040805180820190915281518152602082810190820152919050565b6060600080611841846119a9565b9193509091506001905081600181111561185757fe5b146118a9576040805162461bcd60e51b815260206004820152601760248201527f496e76616c696420524c50206c6973742076616c75652e000000000000000000604482015290519081900360640190fd5b6040805160208082526104208201909252600091816020015b6118ca612188565b8152602001906001900390816118c25790505090506000835b865181101561199e576020821061192b5760405162461bcd60e51b815260040180806020018281038252602a81526020018061241a602a913960400191505060405180910390fd5b6000806119576040518060400160405280858c60000151038152602001858c60200151018152506119a9565b509150915060405180604001604052808383018152602001848b602001510181525085858151811061198557fe5b60209081029190910101526001939093019201016118e3565b508152949350505050565b600080600080846000015111611a06576040805162461bcd60e51b815260206004820152601860248201527f524c50206974656d2063616e6e6f74206265206e756c6c2e0000000000000000604482015290519081900360640190fd5b6020840151805160001a607f8111611a2b576000600160009450945094505050611ccb565b60b78111611aa0578551607f198201908110611a8e576040805162461bcd60e51b815260206004820152601960248201527f496e76616c696420524c502073686f727420737472696e672e00000000000000604482015290519081900360640190fd5b60019550935060009250611ccb915050565b60bf8111611b8457855160b6198201908110611b03576040805162461bcd60e51b815260206004820152601f60248201527f496e76616c696420524c50206c6f6e6720737472696e67206c656e6774682e00604482015290519081900360640190fd5b6000816020036101000a6001850151049050808201886000015111611b6f576040805162461bcd60e51b815260206004820152601860248201527f496e76616c696420524c50206c6f6e6720737472696e672e0000000000000000604482015290519081900360640190fd5b60019091019550935060009250611ccb915050565b60f78111611bf857855160bf198201908110611be7576040805162461bcd60e51b815260206004820152601760248201527f496e76616c696420524c502073686f7274206c6973742e000000000000000000604482015290519081900360640190fd5b600195509350849250611ccb915050565b855160f6198201908110611c53576040805162461bcd60e51b815260206004820152601d60248201527f496e76616c696420524c50206c6f6e67206c697374206c656e6774682e000000604482015290519081900360640190fd5b6000816020036101000a6001850151049050808201886000015111611cb8576040805162461bcd60e51b815260206004820152601660248201527524b73b30b634b210292628103637b733903634b9ba1760511b604482015290519081900360640190fd5b6001918201965094509250611ccb915050565b9193909250565b60606000826001600160401b0381118015611cec57600080fd5b506040519080825280601f01601f191660200182016040528015611d17576020820181803683370190505b509050805160001415611d2b5790506100fc565b8484016020820160005b60208604811015611d56578251825260209283019290910190600101611d35565b5060006001602087066020036101000a039050808251168119845116178252839450505050509392505050565b606061012d82612014565b6060806038841015611de8576040805160018082528183019092529060208201818036833701905050905082840160f81b81600081518110611dcc57fe5b60200101906001600160f81b031916908160001a90535061012a565b600060015b808681611df657fe5b0415611e0b5760019091019061010002611ded565b816001016001600160401b0381118015611e2457600080fd5b506040519080825280601f01601f191660200182016040528015611e4f576020820181803683370190505b50925084820160370160f81b83600081518110611e6857fe5b60200101906001600160f81b031916908160001a905350600190505b818111611ed4576101008183036101000a8781611e9d57fe5b0481611ea557fe5b0660f81b838281518110611eb557fe5b60200101906001600160f81b031916908160001a905350600101611e84565b5050905092915050565b60606000611eeb8361202a565b9050611ef9815160c0611d8e565b81604051602001611f0b929190612373565b604051602081830303815290604052915050919050565b6060600282600081518110611f3357fe5b016020015160f81c81611f4257fe5b0660ff1660001415611f6057611f59826002610fdd565b9050610227565b611f59826001610fdd565b611f7361216e565b600082516001600160401b0381118015611f8c57600080fd5b50604051908082528060200260200182016040528015611fc057816020015b6060815260200190600190039081611fab5790505b50905060005b835181101561200a57611feb848281518110611fde57fe5b6020026020010151611d83565b828281518110611ff757fe5b6020908102919091010152600101611fc6565b506100fc81611304565b606061012d826020015160008460000151611cd2565b606081516000141561204b5750604080516000815260208101909152610227565b6000805b835181101561207e5783818151811061206457fe5b60200260200101515182019150808060010191505061204f565b6000826001600160401b038111801561209657600080fd5b506040519080825280601f01601f1916602001820160405280156120c1576020820181803683370190505b50600092509050602081015b85518310156115b85760008684815181106120e457fe5b6020026020010151905060006020820190506121028382845161212a565b87858151811061210e57fe5b60200260200101515183019250505082806001019350506120cd565b8282825b6020811061214d578151835260209283019290910190601f190161212e565b905182516020929092036101000a6000190180199091169116179052505050565b604051806040016040528060608152602001606081525090565b604051806040016040528060008152602001600081525090565b600082601f8301126121b2578081fd5b81356001600160401b03808211156121c657fe5b604051601f8301601f1916810160200182811182821017156121e457fe5b6040528281528483016020018610156121fb578384fd5b82602086016020830137918201602001929092529392505050565b60008060408385031215612228578182fd5b82356001600160401b038082111561223e578384fd5b61224a868387016121a2565b9350602085013591508082111561225f578283fd5b5061226c858286016121a2565b9150509250929050565b60008060006060848603121561228a578081fd5b83356001600160401b03808211156122a0578283fd5b6122ac878388016121a2565b945060208601359150808211156122c1578283fd5b506122ce868287016121a2565b925050604084013590509250925092565b600080600080608085870312156122f4578081fd5b84356001600160401b038082111561230a578283fd5b612316888389016121a2565b9550602087013591508082111561232b578283fd5b612337888389016121a2565b9450604087013591508082111561234c578283fd5b50612359878288016121a2565b949793965093946060013593505050565b90815260200190565b600083516123858184602088016123e9565b8351908301906123998183602088016123e9565b01949350505050565b901515815260200190565b600083151582526040602083015282518060408401526123d48160608501602087016123e9565b601f01601f1916919091016060019392505050565b60005b838110156124045781810151838201526020016123ec565b83811115612413576000848401525b5050505056fe50726f766964656420524c50206c6973742065786365656473206d6178206c697374206c656e6774682e52656365697665642061206e6f6465207769746820616e20756e6b6e6f776e20707265666978a164736f6c6343000706000a",
  "linkReferences": {},
  "deployedLinkReferences": {}
}