{
  "_format": "hh-sol-artifact-1",
  "contractName": "Helper_TestRunner",
  "sourceName": "contracts/test-helpers/Helper_TestRunner.sol",
  "abi": [
    {
      "inputs": [
        {
          "components": [
            {
              "internalType": "string",
              "name": "functionName",
              "type": "string"
            },
            {
              "internalType": "bytes",
              "name": "functionData",
              "type": "bytes"
            },
            {
              "internalType": "bool",
              "name": "expectedReturnStatus",
              "type": "bool"
            },
            {
              "internalType": "bytes",
              "name": "expectedReturnData",
              "type": "bytes"
            },
            {
              "internalType": "bool",
              "name": "onlyValidateFlag",
              "type": "bool"
            }
          ],
          "internalType": "struct Helper_TestRunner.TestStep[]",
          "name": "_steps",
          "type": "tuple[]"
        }
      ],
      "name": "runMultipleTestSteps",
      "outputs": [],
      "stateMutability": "nonpayable",
      "type": "function"
    },
    {
      "inputs": [
        {
          "components": [
            {
              "internalType": "string",
              "name": "functionName",
              "type": "string"
            },
            {
              "internalType": "bytes",
              "name": "functionData",
              "type": "bytes"
            },
            {
              "internalType": "bool",
              "name": "expectedReturnStatus",
              "type": "bool"
            },
            {
              "internalType": "bytes",
              "name": "expectedReturnData",
              "type": "bytes"
            },
            {
              "internalType": "bool",
              "name": "onlyValidateFlag",
              "type": "bool"
            }
          ],
          "internalType": "struct Helper_TestRunner.TestStep",
          "name": "_step",
          "type": "tuple"
        }
      ],
      "name": "runSingleTestStep",
      "outputs": [],
      "stateMutability": "nonpayable",
      "type": "function"
    }
  ],
  "bytecode": "0x608060405234801561001057600080fd5b506110a2806100206000396000f3fe608060405234801561001057600080fd5b50600436106100365760003560e01c806343f9f27d1461003b578063dd9e289014610050575b600080fd5b61004e610049366004610dbf565b610063565b005b61004e61005e366004610d26565b610836565b805160405160009161007791602001610e8a565b6040516020818303038152906040528051906020012090507fd520c32600de53b7dabdeb8833d4032fad0423f6c5aa0b9894a37847f14aeab78114156100c557602080830151805190918201f35b7fd4acac49d3184c9a5b5f58547241b7636cd672b4b3b7f2e5c529da12642a46058114156100fb57602080830151805190918201fd5b7fdbc7aada9d0fca4e11b6085e53b2397a57db73c97c73323d769a387d1519013981141561012557fe5b600080336001600160a01b031684602001516040516101449190610e8a565b6000604051808303816000865af19150503d8060008114610181576040519150601f19603f3d011682016040523d82523d6000602084013e610186565b606091505b509150915083604001511515821515146103b05760018215151415610251576101c66040518060800160405280604681526020016110506046913961086a565b6101fe604051806040016040528060128152602001714f6666656e64696e6720537465703a20257360701b8152508560000151610913565b61022b6040518060400160405280600c81526020016b2932ba3ab937102230ba309d60a11b81525061086a565b61023481610a20565b61024c6040518060200160405280600081525061086a565b6103a8565b60008060008061026085610ac6565b9350935093509350610289604051806080016040528060468152602001610fc86046913961086a565b6102c1604051806040016040528060128152602001714f6666656e64696e6720537465703a20257360701b8152508960000151610913565b6102eb60405180604001604052806008815260200167466c61673a20257360c01b81525085610b19565b610322604051806040016040528060158152602001744e756973616e636520476173204c6566743a20257360581b81525084610b19565b610356604051806040016040528060128152602001714f564d2047617320526566756e643a20257360701b81525083610b19565b6103826040518060400160405280600b81526020016a22bc3a3930902230ba309d60a91b81525061086a565b61038b81610a20565b6103a36040518060200160405280600081525061086a565b505050505b6103b0610bc7565b83606001518051906020012081805190602001201461082357600182151514156104ba576103f56040518060600160405280603d8152602001610f8b603d913961086a565b61042d604051806040016040528060128152602001714f6666656e64696e6720537465703a20257360701b8152508560000151610913565b6104576040518060400160405280600981526020016822bc3832b1ba32b21d60b91b81525061086a565b6104648460600151610a20565b61048c6040518060400160405280600781526020016620b1ba3ab0b61d60c91b81525061086a565b61049581610a20565b6104ad6040518060200160405280600081525061086a565b6104b5610bc7565b610823565b6000806000806104cd8860600151610ac6565b93509350935093506000806000806104e489610ac6565b93509350935093508b60800151156105c7578388146105c25761051e60405180608001604052806042815260200161100e6042913961086a565b610556604051806040016040528060128152602001714f6666656e64696e6720537465703a20257360701b8152508d60000151610913565b61058960405180604001604052806011815260200170457870656374656420466c61673a20257360781b81525089610b19565b6105ba6040518060400160405280600f81526020016e41637475616c20466c61673a20257360881b81525085610b19565b6105c2610bc7565b61081a565b6105e8604051806080016040528060478152602001610f446047913961086a565b610620604051806040016040528060128152602001714f6666656e64696e6720537465703a20257360701b8152508d60000151610913565b61065360405180604001604052806011815260200170457870656374656420466c61673a20257360781b81525089610b19565b6106846040518060400160405280600f81526020016e41637475616c20466c61673a20257360881b81525085610b19565b6106c36040518060400160405280601e81526020017f4578706563746564204e756973616e636520476173204c6566743a202573000081525088610b19565b6107026040518060400160405280601c81526020017f41637475616c204e756973616e636520476173204c6566743a2025730000000081525084610b19565b6107416040518060400160405280601b81526020017f4578706563746564204f564d2047617320526566756e643a202573000000000081525087610b19565b6107806040518060400160405280601981526020017f41637475616c204f564d2047617320526566756e643a2025730000000000000081525083610b19565b6107b56040518060400160405280601481526020017322bc3832b1ba32b21022bc3a3930902230ba309d60611b81525061086a565b6107be85610a20565b6107f16040518060400160405280601281526020017120b1ba3ab0b61022bc3a3930902230ba309d60711b81525061086a565b6107fa81610a20565b6108126040518060200160405280600081525061086a565b61081a610bc7565b50505050505050505b8161083057805160208201fd5b50505050565b60005b81518110156108665761085e82828151811061085157fe5b6020026020010151610063565b600101610839565b5050565b610910816040516024018080602001828103825283818151815260200191508051906020019080838360005b838110156108ae578181015183820152602001610896565b50505050905090810190601f1680156108db5780820380516001836020036101000a031916815260200191505b5060408051601f198184030181529190526020810180516001600160e01b031663104c13eb60e21b1790529250610be8915050565b50565b6108668282604051602401808060200180602001838103835285818151815260200191508051906020019080838360005b8381101561095c578181015183820152602001610944565b50505050905090810190601f1680156109895780820380516001836020036101000a031916815260200191505b50838103825284518152845160209182019186019080838360005b838110156109bc5781810151838201526020016109a4565b50505050905090810190601f1680156109e95780820380516001836020036101000a031916815260200191505b5060408051601f198184030181529190526020810180516001600160e01b0316634b5c427760e01b1790529450610be89350505050565b610910816040516024018080602001828103825283818151815260200191508051906020019080838360005b83811015610a64578181015183820152602001610a4c565b50505050905090810190601f168015610a915780820380516001836020036101000a031916815260200191505b5060408051601f198184030181529190526020810180516001600160e01b03166305f3bfab60e11b1790529250610be8915050565b60008060006060845160001415610af55750506040805160208101909152600080825292508291508190610b12565b84806020019051810190610b099190610dfa565b93509350935093505b9193509193565b61086682826040516024018080602001838152602001828103825284818151815260200191508051906020019080838360005b83811015610b64578181015183820152602001610b4c565b50505050905090810190601f168015610b915780820380516001836020036101000a031916815260200191505b5060408051601f198184030181529190526020810180516001600160e01b03166309710a9d60e41b1790529350610be892505050565b60405162461bcd60e51b8152600401610bdf90610ea6565b60405180910390fd5b80516a636f6e736f6c652e6c6f67602083016000808483855afa5050505050565b80358015158114610c1957600080fd5b919050565b600082601f830112610c2e578081fd5b8135610c41610c3c82610ef5565b610ed1565b818152846020838601011115610c55578283fd5b816020850160208301379081016020019190915292915050565b600060a08284031215610c80578081fd5b610c8a60a0610ed1565b9050813567ffffffffffffffff80821115610ca457600080fd5b610cb085838601610c1e565b83526020840135915080821115610cc657600080fd5b610cd285838601610c1e565b6020840152610ce360408501610c09565b60408401526060840135915080821115610cfc57600080fd5b50610d0984828501610c1e565b606083015250610d1b60808301610c09565b608082015292915050565b60006020808385031215610d38578182fd5b823567ffffffffffffffff80821115610d4f578384fd5b818501915085601f830112610d62578384fd5b813581811115610d6e57fe5b610d7b8485830201610ed1565b8181528481019250838501865b83811015610db157610d9f8a888435890101610c6f565b85529386019390860190600101610d88565b509098975050505050505050565b600060208284031215610dd0578081fd5b813567ffffffffffffffff811115610de6578182fd5b610df284828501610c6f565b949350505050565b60008060008060808587031215610e0f578283fd5b845193506020850151925060408501519150606085015167ffffffffffffffff811115610e3a578182fd5b8501601f81018713610e4a578182fd5b8051610e58610c3c82610ef5565b818152886020838501011115610e6c578384fd5b610e7d826020830160208601610f17565b9598949750929550505050565b60008251610e9c818460208701610f17565b9190910192915050565b6020808252601190820152702a32b9ba1039ba32b8103330b4b632b21760791b604082015260600190565b60405181810167ffffffffffffffff81118282101715610eed57fe5b604052919050565b600067ffffffffffffffff821115610f0957fe5b50601f01601f191660200190565b60005b83811015610f32578181015183820152602001610f1a565b83811115610830575050600091015256fe4552524f523a2041637475616c2072657665727420666c6167206461746120646f6573206e6f74206d617463682065787065637465642072657665727420666c616720646174614552524f523a2041637475616c2072657475726e206461746120646f6573206e6f74206d617463682065787065637465642072657475726e20646174614552524f523a2045787065637465642066756e6374696f6e20746f2072657475726e207375636365737366756c6c792c206275742066756e6374696f6e2072657665727465644552524f523a2041637475616c2072657665727420666c616720646f6573206e6f74206d617463682065787065637465642072657665727420666c616720646174614552524f523a2045787065637465642066756e6374696f6e20746f207265766572742c206275742066756e6374696f6e2072657475726e6564207375636365737366756c6c79a164736f6c6343000706000a",
  "linkReferences": {},
  "deployedLinkReferences": {}
}