{
  "contracts/optimistic-ethereum/OVM/predeploys/ERC1820Registry.sol": {
    "ERC1820Registry": {
      "abi": [
        {
          "anonymous": false,
          "inputs": [
            {
              "indexed": true,
              "internalType": "address",
              "name": "addr",
              "type": "address"
            },
            {
              "indexed": true,
              "internalType": "bytes32",
              "name": "interfaceHash",
              "type": "bytes32"
            },
            {
              "indexed": true,
              "internalType": "address",
              "name": "implementer",
              "type": "address"
            }
          ],
          "name": "InterfaceImplementerSet",
          "type": "event"
        },
        {
          "anonymous": false,
          "inputs": [
            {
              "indexed": true,
              "internalType": "address",
              "name": "addr",
              "type": "address"
            },
            {
              "indexed": true,
              "internalType": "address",
              "name": "newManager",
              "type": "address"
            }
          ],
          "name": "ManagerChanged",
          "type": "event"
        },
        {
          "inputs": [
            {
              "internalType": "address",
              "name": "_addr",
              "type": "address"
            },
            {
              "internalType": "bytes32",
              "name": "_interfaceHash",
              "type": "bytes32"
            }
          ],
          "name": "getInterfaceImplementer",
          "outputs": [
            {
              "internalType": "address",
              "name": "",
              "type": "address"
            }
          ],
          "stateMutability": "view",
          "type": "function"
        },
        {
          "inputs": [
            {
              "internalType": "address",
              "name": "_addr",
              "type": "address"
            }
          ],
          "name": "getManager",
          "outputs": [
            {
              "internalType": "address",
              "name": "",
              "type": "address"
            }
          ],
          "stateMutability": "view",
          "type": "function"
        },
        {
          "inputs": [
            {
              "internalType": "address",
              "name": "_contract",
              "type": "address"
            },
            {
              "internalType": "bytes4",
              "name": "_interfaceId",
              "type": "bytes4"
            }
          ],
          "name": "implementsERC165Interface",
          "outputs": [
            {
              "internalType": "bool",
              "name": "",
              "type": "bool"
            }
          ],
          "stateMutability": "view",
          "type": "function"
        },
        {
          "inputs": [
            {
              "internalType": "address",
              "name": "_contract",
              "type": "address"
            },
            {
              "internalType": "bytes4",
              "name": "_interfaceId",
              "type": "bytes4"
            }
          ],
          "name": "implementsERC165InterfaceNoCache",
          "outputs": [
            {
              "internalType": "bool",
              "name": "",
              "type": "bool"
            }
          ],
          "stateMutability": "view",
          "type": "function"
        },
        {
          "inputs": [
            {
              "internalType": "string",
              "name": "_interfaceName",
              "type": "string"
            }
          ],
          "name": "interfaceHash",
          "outputs": [
            {
              "internalType": "bytes32",
              "name": "",
              "type": "bytes32"
            }
          ],
          "stateMutability": "pure",
          "type": "function"
        },
        {
          "inputs": [
            {
              "internalType": "address",
              "name": "_addr",
              "type": "address"
            },
            {
              "internalType": "bytes32",
              "name": "_interfaceHash",
              "type": "bytes32"
            },
            {
              "internalType": "address",
              "name": "_implementer",
              "type": "address"
            }
          ],
          "name": "setInterfaceImplementer",
          "outputs": [],
          "stateMutability": "nonpayable",
          "type": "function"
        },
        {
          "inputs": [
            {
              "internalType": "address",
              "name": "_addr",
              "type": "address"
            },
            {
              "internalType": "address",
              "name": "_newManager",
              "type": "address"
            }
          ],
          "name": "setManager",
          "outputs": [],
          "stateMutability": "nonpayable",
          "type": "function"
        },
        {
          "inputs": [
            {
              "internalType": "address",
              "name": "_contract",
              "type": "address"
            },
            {
              "internalType": "bytes4",
              "name": "_interfaceId",
              "type": "bytes4"
            }
          ],
          "name": "updateERC165Cache",
          "outputs": [],
          "stateMutability": "nonpayable",
          "type": "function"
        }
      ],
      "devdoc": {
        "author": "Jordi Baylina and Jacques Dafflon",
        "details": "This contract is the official implementation of the ERC1820 Registry For more details, see https://eips.ethereum.org/EIPS/eip-1820 Compiler used: optimistic-solc Runtime target: OVM",
        "kind": "dev",
        "methods": {
          "getInterfaceImplementer(address,bytes32)": {
            "params": {
              "_addr": "Address being queried for the implementer of an interface. (If '_addr' is the zero address then 'msg.sender' is assumed.)",
              "_interfaceHash": "Keccak256 hash of the name of the interface as a string. E.g., 'web3.utils.keccak256(\"ERC777TokensRecipient\")' for the 'ERC777TokensRecipient' interface."
            },
            "returns": {
              "_0": "The address of the contract which implements the interface '_interfaceHash' for '_addr' or '0' if '_addr' did not register an implementer for this interface."
            }
          },
          "getManager(address)": {
            "params": {
              "_addr": "Address for which to return the manager."
            },
            "returns": {
              "_0": "Address of the manager for a given address."
            }
          },
          "implementsERC165Interface(address,bytes4)": {
            "params": {
              "_contract": "Address of the contract to check.",
              "_interfaceId": "ERC165 interface to check."
            },
            "returns": {
              "_0": "True if '_contract' implements '_interfaceId', false otherwise."
            }
          },
          "implementsERC165InterfaceNoCache(address,bytes4)": {
            "params": {
              "_contract": "Address of the contract to check.",
              "_interfaceId": "ERC165 interface to check."
            },
            "returns": {
              "_0": "True if '_contract' implements '_interfaceId', false otherwise."
            }
          },
          "interfaceHash(string)": {
            "params": {
              "_interfaceName": "Name of the interface."
            },
            "returns": {
              "_0": "The keccak256 hash of an interface name."
            }
          },
          "setInterfaceImplementer(address,bytes32,address)": {
            "params": {
              "_addr": "Address for which to set the interface. (If '_addr' is the zero address then 'msg.sender' is assumed.)",
              "_implementer": "Contract address implementing '_interfaceHash' for '_addr'.",
              "_interfaceHash": "Keccak256 hash of the name of the interface as a string. E.g., 'web3.utils.keccak256(\"ERC777TokensRecipient\")' for the 'ERC777TokensRecipient' interface."
            }
          },
          "setManager(address,address)": {
            "params": {
              "_addr": "Address for which to set the new manager.",
              "_newManager": "Address of the new manager for 'addr'. (Pass '0x0' to reset the manager to '_addr'.)"
            }
          },
          "updateERC165Cache(address,bytes4)": {
            "params": {
              "_contract": "Address of the contract for which to update the cache.",
              "_interfaceId": "ERC165 interface for which to update the cache."
            }
          }
        },
        "title": "ERC1820 Pseudo-introspection Registry Contract",
        "version": 1
      },
      "evm": {
        "bytecode": {
          "linkReferences": {},
          "object": "608060405234801561001057600080fd5b506108c1806100206000396000f3fe608060405234801561001057600080fd5b50600436106100885760003560e01c8063a41e7d511161005b578063a41e7d51146101b7578063aabbb8ca146101ed578063b705676514610219578063f712f3e81461026357610088565b806329965a1d1461008d5780633d584063146100c55780635df8122f1461010757806365ba36c114610135575b600080fd5b6100c3600480360360608110156100a357600080fd5b506001600160a01b03813581169160208101359160409091013516610299565b005b6100eb600480360360208110156100db57600080fd5b50356001600160a01b0316610501565b604080516001600160a01b039092168252519081900360200190f35b6100c36004803603604081101561011d57600080fd5b506001600160a01b038135811691602001351661054b565b6101a56004803603602081101561014b57600080fd5b81019060208101813564010000000081111561016657600080fd5b82018360208201111561017857600080fd5b8035906020019184600183028401116401000000008311171561019a57600080fd5b509092509050610624565b60408051918252519081900360200190f35b6100c3600480360360408110156101cd57600080fd5b5080356001600160a01b031690602001356001600160e01b03191661065f565b6100eb6004803603604081101561020357600080fd5b506001600160a01b0381351690602001356106dc565b61024f6004803603604081101561022f57600080fd5b5080356001600160a01b031690602001356001600160e01b031916610753565b604080519115158252519081900360200190f35b61024f6004803603604081101561027957600080fd5b5080356001600160a01b031690602001356001600160e01b0319166107f5565b60006001600160a01b038416156102b057836102b2565b335b9050336102be82610501565b6001600160a01b03161461030b576040805162461bcd60e51b815260206004820152600f60248201526e2737ba103a34329036b0b730b3b2b960891b604482015290519081900360640190fd5b61031483610873565b15610366576040805162461bcd60e51b815260206004820152601a60248201527f4d757374206e6f7420626520616e204552433136352068617368000000000000604482015290519081900360640190fd5b6001600160a01b0382161580159061038757506001600160a01b0382163314155b1561049d57604051602001808073455243313832305f4143434550545f4d4147494360601b815250601401905060405160208183030381529060405280519060200120826001600160a01b031663249cb3fa85846040518363ffffffff1660e01b815260040180838152602001826001600160a01b031681526020019250505060206040518083038186803b15801561041f57600080fd5b505afa158015610433573d6000803e3d6000fd5b505050506040513d602081101561044957600080fd5b50511461049d576040805162461bcd60e51b815260206004820181905260248201527f446f6573206e6f7420696d706c656d656e742074686520696e74657266616365604482015290519081900360640190fd5b6001600160a01b0381811660008181526020818152604080832088845290915280822080546001600160a01b0319169487169485179055518692917f93baa6efbd2244243bfee6ce4cfdd1d04fc4c0e9a786abd3a41313bd352db15391a450505050565b6001600160a01b03818116600090815260016020526040812054909116610529575080610546565b506001600160a01b03808216600090815260016020526040902054165b919050565b3361055583610501565b6001600160a01b0316146105a2576040805162461bcd60e51b815260206004820152600f60248201526e2737ba103a34329036b0b730b3b2b960891b604482015290519081900360640190fd5b816001600160a01b0316816001600160a01b0316146105c157806105c4565b60005b6001600160a01b0383811660008181526001602052604080822080546001600160a01b0319169585169590951790945592519184169290917f605c2dbf762e5f7d60a546d42e7205dcb1b011ebc62a61736a57c9089d3a43509190a35050565b600082826040516020018083838082843780830192505050925050506040516020818303038152906040528051906020012090505b92915050565b6106698282610753565b610674576000610676565b815b6001600160a01b039283166000818152602081815260408083206001600160e01b03199690961680845295825280832080546001600160a01b0319169590971694909417909555908152600284528181209281529190925220805460ff19166001179055565b6000806001600160a01b038416156106f457836106f6565b335b905061070183610873565b15610727578261071182826107f5565b61071c57600061071e565b815b92505050610659565b6001600160a01b0390811660009081526020818152604080832086845290915290205416905092915050565b60008080610768856301ffc9a760e01b610880565b9092509050811580610778575080155b1561078857600092505050610659565b61079a856001600160e01b0319610880565b90925090508115806107ab57508015155b156107bb57600092505050610659565b6107c58585610880565b90925090506001821480156107da5750806001145b156107ea57600192505050610659565b506000949350505050565b6001600160a01b03821660009081526002602090815260408083206001600160e01b03198516845290915281205460ff1661083b576108348383610753565b9050610659565b506001600160a01b038083166000818152602081815260408083206001600160e01b0319871684529091529020549091161492915050565b6001600160e01b03161590565b6040516301ffc9a760e01b8082526004820183905260009182919060208160248189617530fa90519096909550935050505056fea164736f6c6343000706000a",
          "opcodes": "PUSH1 0x80 PUSH1 0x40 MSTORE CALLVALUE DUP1 ISZERO PUSH2 0x10 JUMPI PUSH1 0x0 DUP1 REVERT JUMPDEST POP PUSH2 0x8C1 DUP1 PUSH2 0x20 PUSH1 0x0 CODECOPY PUSH1 0x0 RETURN INVALID PUSH1 0x80 PUSH1 0x40 MSTORE CALLVALUE DUP1 ISZERO PUSH2 0x10 JUMPI PUSH1 0x0 DUP1 REVERT JUMPDEST POP PUSH1 0x4 CALLDATASIZE LT PUSH2 0x88 JUMPI PUSH1 0x0 CALLDATALOAD PUSH1 0xE0 SHR DUP1 PUSH4 0xA41E7D51 GT PUSH2 0x5B JUMPI DUP1 PUSH4 0xA41E7D51 EQ PUSH2 0x1B7 JUMPI DUP1 PUSH4 0xAABBB8CA EQ PUSH2 0x1ED JUMPI DUP1 PUSH4 0xB7056765 EQ PUSH2 0x219 JUMPI DUP1 PUSH4 0xF712F3E8 EQ PUSH2 0x263 JUMPI PUSH2 0x88 JUMP JUMPDEST DUP1 PUSH4 0x29965A1D EQ PUSH2 0x8D JUMPI DUP1 PUSH4 0x3D584063 EQ PUSH2 0xC5 JUMPI DUP1 PUSH4 0x5DF8122F EQ PUSH2 0x107 JUMPI DUP1 PUSH4 0x65BA36C1 EQ PUSH2 0x135 JUMPI JUMPDEST PUSH1 0x0 DUP1 REVERT JUMPDEST PUSH2 0xC3 PUSH1 0x4 DUP1 CALLDATASIZE SUB PUSH1 0x60 DUP2 LT ISZERO PUSH2 0xA3 JUMPI PUSH1 0x0 DUP1 REVERT JUMPDEST POP PUSH1 0x1 PUSH1 0x1 PUSH1 0xA0 SHL SUB DUP2 CALLDATALOAD DUP2 AND SWAP2 PUSH1 0x20 DUP2 ADD CALLDATALOAD SWAP2 PUSH1 0x40 SWAP1 SWAP2 ADD CALLDATALOAD AND PUSH2 0x299 JUMP JUMPDEST STOP JUMPDEST PUSH2 0xEB PUSH1 0x4 DUP1 CALLDATASIZE SUB PUSH1 0x20 DUP2 LT ISZERO PUSH2 0xDB JUMPI PUSH1 0x0 DUP1 REVERT JUMPDEST POP CALLDATALOAD PUSH1 0x1 PUSH1 0x1 PUSH1 0xA0 SHL SUB AND PUSH2 0x501 JUMP JUMPDEST PUSH1 0x40 DUP1 MLOAD PUSH1 0x1 PUSH1 0x1 PUSH1 0xA0 SHL SUB SWAP1 SWAP3 AND DUP3 MSTORE MLOAD SWAP1 DUP2 SWAP1 SUB PUSH1 0x20 ADD SWAP1 RETURN JUMPDEST PUSH2 0xC3 PUSH1 0x4 DUP1 CALLDATASIZE SUB PUSH1 0x40 DUP2 LT ISZERO PUSH2 0x11D JUMPI PUSH1 0x0 DUP1 REVERT JUMPDEST POP PUSH1 0x1 PUSH1 0x1 PUSH1 0xA0 SHL SUB DUP2 CALLDATALOAD DUP2 AND SWAP2 PUSH1 0x20 ADD CALLDATALOAD AND PUSH2 0x54B JUMP JUMPDEST PUSH2 0x1A5 PUSH1 0x4 DUP1 CALLDATASIZE SUB PUSH1 0x20 DUP2 LT ISZERO PUSH2 0x14B JUMPI PUSH1 0x0 DUP1 REVERT JUMPDEST DUP2 ADD SWAP1 PUSH1 0x20 DUP2 ADD DUP2 CALLDATALOAD PUSH5 0x100000000 DUP2 GT ISZERO PUSH2 0x166 JUMPI PUSH1 0x0 DUP1 REVERT JUMPDEST DUP3 ADD DUP4 PUSH1 0x20 DUP3 ADD GT ISZERO PUSH2 0x178 JUMPI PUSH1 0x0 DUP1 REVERT JUMPDEST DUP1 CALLDATALOAD SWAP1 PUSH1 0x20 ADD SWAP2 DUP5 PUSH1 0x1 DUP4 MUL DUP5 ADD GT PUSH5 0x100000000 DUP4 GT OR ISZERO PUSH2 0x19A JUMPI PUSH1 0x0 DUP1 REVERT JUMPDEST POP SWAP1 SWAP3 POP SWAP1 POP PUSH2 0x624 JUMP JUMPDEST PUSH1 0x40 DUP1 MLOAD SWAP2 DUP3 MSTORE MLOAD SWAP1 DUP2 SWAP1 SUB PUSH1 0x20 ADD SWAP1 RETURN JUMPDEST PUSH2 0xC3 PUSH1 0x4 DUP1 CALLDATASIZE SUB PUSH1 0x40 DUP2 LT ISZERO PUSH2 0x1CD JUMPI PUSH1 0x0 DUP1 REVERT JUMPDEST POP DUP1 CALLDATALOAD PUSH1 0x1 PUSH1 0x1 PUSH1 0xA0 SHL SUB AND SWAP1 PUSH1 0x20 ADD CALLDATALOAD PUSH1 0x1 PUSH1 0x1 PUSH1 0xE0 SHL SUB NOT AND PUSH2 0x65F JUMP JUMPDEST PUSH2 0xEB PUSH1 0x4 DUP1 CALLDATASIZE SUB PUSH1 0x40 DUP2 LT ISZERO PUSH2 0x203 JUMPI PUSH1 0x0 DUP1 REVERT JUMPDEST POP PUSH1 0x1 PUSH1 0x1 PUSH1 0xA0 SHL SUB DUP2 CALLDATALOAD AND SWAP1 PUSH1 0x20 ADD CALLDATALOAD PUSH2 0x6DC JUMP JUMPDEST PUSH2 0x24F PUSH1 0x4 DUP1 CALLDATASIZE SUB PUSH1 0x40 DUP2 LT ISZERO PUSH2 0x22F JUMPI PUSH1 0x0 DUP1 REVERT JUMPDEST POP DUP1 CALLDATALOAD PUSH1 0x1 PUSH1 0x1 PUSH1 0xA0 SHL SUB AND SWAP1 PUSH1 0x20 ADD CALLDATALOAD PUSH1 0x1 PUSH1 0x1 PUSH1 0xE0 SHL SUB NOT AND PUSH2 0x753 JUMP JUMPDEST PUSH1 0x40 DUP1 MLOAD SWAP2 ISZERO ISZERO DUP3 MSTORE MLOAD SWAP1 DUP2 SWAP1 SUB PUSH1 0x20 ADD SWAP1 RETURN JUMPDEST PUSH2 0x24F PUSH1 0x4 DUP1 CALLDATASIZE SUB PUSH1 0x40 DUP2 LT ISZERO PUSH2 0x279 JUMPI PUSH1 0x0 DUP1 REVERT JUMPDEST POP DUP1 CALLDATALOAD PUSH1 0x1 PUSH1 0x1 PUSH1 0xA0 SHL SUB AND SWAP1 PUSH1 0x20 ADD CALLDATALOAD PUSH1 0x1 PUSH1 0x1 PUSH1 0xE0 SHL SUB NOT AND PUSH2 0x7F5 JUMP JUMPDEST PUSH1 0x0 PUSH1 0x1 PUSH1 0x1 PUSH1 0xA0 SHL SUB DUP5 AND ISZERO PUSH2 0x2B0 JUMPI DUP4 PUSH2 0x2B2 JUMP JUMPDEST CALLER JUMPDEST SWAP1 POP CALLER PUSH2 0x2BE DUP3 PUSH2 0x501 JUMP JUMPDEST PUSH1 0x1 PUSH1 0x1 PUSH1 0xA0 SHL SUB AND EQ PUSH2 0x30B JUMPI PUSH1 0x40 DUP1 MLOAD PUSH3 0x461BCD PUSH1 0xE5 SHL DUP2 MSTORE PUSH1 0x20 PUSH1 0x4 DUP3 ADD MSTORE PUSH1 0xF PUSH1 0x24 DUP3 ADD MSTORE PUSH15 0x2737BA103A34329036B0B730B3B2B9 PUSH1 0x89 SHL PUSH1 0x44 DUP3 ADD MSTORE SWAP1 MLOAD SWAP1 DUP2 SWAP1 SUB PUSH1 0x64 ADD SWAP1 REVERT JUMPDEST PUSH2 0x314 DUP4 PUSH2 0x873 JUMP JUMPDEST ISZERO PUSH2 0x366 JUMPI PUSH1 0x40 DUP1 MLOAD PUSH3 0x461BCD PUSH1 0xE5 SHL DUP2 MSTORE PUSH1 0x20 PUSH1 0x4 DUP3 ADD MSTORE PUSH1 0x1A PUSH1 0x24 DUP3 ADD MSTORE PUSH32 0x4D757374206E6F7420626520616E204552433136352068617368000000000000 PUSH1 0x44 DUP3 ADD MSTORE SWAP1 MLOAD SWAP1 DUP2 SWAP1 SUB PUSH1 0x64 ADD SWAP1 REVERT JUMPDEST PUSH1 0x1 PUSH1 0x1 PUSH1 0xA0 SHL SUB DUP3 AND ISZERO DUP1 ISZERO SWAP1 PUSH2 0x387 JUMPI POP PUSH1 0x1 PUSH1 0x1 PUSH1 0xA0 SHL SUB DUP3 AND CALLER EQ ISZERO JUMPDEST ISZERO PUSH2 0x49D JUMPI PUSH1 0x40 MLOAD PUSH1 0x20 ADD DUP1 DUP1 PUSH20 0x455243313832305F4143434550545F4D41474943 PUSH1 0x60 SHL DUP2 MSTORE POP PUSH1 0x14 ADD SWAP1 POP PUSH1 0x40 MLOAD PUSH1 0x20 DUP2 DUP4 SUB SUB DUP2 MSTORE SWAP1 PUSH1 0x40 MSTORE DUP1 MLOAD SWAP1 PUSH1 0x20 ADD KECCAK256 DUP3 PUSH1 0x1 PUSH1 0x1 PUSH1 0xA0 SHL SUB AND PUSH4 0x249CB3FA DUP6 DUP5 PUSH1 0x40 MLOAD DUP4 PUSH4 0xFFFFFFFF AND PUSH1 0xE0 SHL DUP2 MSTORE PUSH1 0x4 ADD DUP1 DUP4 DUP2 MSTORE PUSH1 0x20 ADD DUP3 PUSH1 0x1 PUSH1 0x1 PUSH1 0xA0 SHL SUB AND DUP2 MSTORE PUSH1 0x20 ADD SWAP3 POP POP POP PUSH1 0x20 PUSH1 0x40 MLOAD DUP1 DUP4 SUB DUP2 DUP7 DUP1 EXTCODESIZE ISZERO DUP1 ISZERO PUSH2 0x41F JUMPI PUSH1 0x0 DUP1 REVERT JUMPDEST POP GAS STATICCALL ISZERO DUP1 ISZERO PUSH2 0x433 JUMPI RETURNDATASIZE PUSH1 0x0 DUP1 RETURNDATACOPY RETURNDATASIZE PUSH1 0x0 REVERT JUMPDEST POP POP POP POP PUSH1 0x40 MLOAD RETURNDATASIZE PUSH1 0x20 DUP2 LT ISZERO PUSH2 0x449 JUMPI PUSH1 0x0 DUP1 REVERT JUMPDEST POP MLOAD EQ PUSH2 0x49D JUMPI PUSH1 0x40 DUP1 MLOAD PUSH3 0x461BCD PUSH1 0xE5 SHL DUP2 MSTORE PUSH1 0x20 PUSH1 0x4 DUP3 ADD DUP2 SWAP1 MSTORE PUSH1 0x24 DUP3 ADD MSTORE PUSH32 0x446F6573206E6F7420696D706C656D656E742074686520696E74657266616365 PUSH1 0x44 DUP3 ADD MSTORE SWAP1 MLOAD SWAP1 DUP2 SWAP1 SUB PUSH1 0x64 ADD SWAP1 REVERT JUMPDEST PUSH1 0x1 PUSH1 0x1 PUSH1 0xA0 SHL SUB DUP2 DUP2 AND PUSH1 0x0 DUP2 DUP2 MSTORE PUSH1 0x20 DUP2 DUP2 MSTORE PUSH1 0x40 DUP1 DUP4 KECCAK256 DUP9 DUP5 MSTORE SWAP1 SWAP2 MSTORE DUP1 DUP3 KECCAK256 DUP1 SLOAD PUSH1 0x1 PUSH1 0x1 PUSH1 0xA0 SHL SUB NOT AND SWAP5 DUP8 AND SWAP5 DUP6 OR SWAP1 SSTORE MLOAD DUP7 SWAP3 SWAP2 PUSH32 0x93BAA6EFBD2244243BFEE6CE4CFDD1D04FC4C0E9A786ABD3A41313BD352DB153 SWAP2 LOG4 POP POP POP POP JUMP JUMPDEST PUSH1 0x1 PUSH1 0x1 PUSH1 0xA0 SHL SUB DUP2 DUP2 AND PUSH1 0x0 SWAP1 DUP2 MSTORE PUSH1 0x1 PUSH1 0x20 MSTORE PUSH1 0x40 DUP2 KECCAK256 SLOAD SWAP1 SWAP2 AND PUSH2 0x529 JUMPI POP DUP1 PUSH2 0x546 JUMP JUMPDEST POP PUSH1 0x1 PUSH1 0x1 PUSH1 0xA0 SHL SUB DUP1 DUP3 AND PUSH1 0x0 SWAP1 DUP2 MSTORE PUSH1 0x1 PUSH1 0x20 MSTORE PUSH1 0x40 SWAP1 KECCAK256 SLOAD AND JUMPDEST SWAP2 SWAP1 POP JUMP JUMPDEST CALLER PUSH2 0x555 DUP4 PUSH2 0x501 JUMP JUMPDEST PUSH1 0x1 PUSH1 0x1 PUSH1 0xA0 SHL SUB AND EQ PUSH2 0x5A2 JUMPI PUSH1 0x40 DUP1 MLOAD PUSH3 0x461BCD PUSH1 0xE5 SHL DUP2 MSTORE PUSH1 0x20 PUSH1 0x4 DUP3 ADD MSTORE PUSH1 0xF PUSH1 0x24 DUP3 ADD MSTORE PUSH15 0x2737BA103A34329036B0B730B3B2B9 PUSH1 0x89 SHL PUSH1 0x44 DUP3 ADD MSTORE SWAP1 MLOAD SWAP1 DUP2 SWAP1 SUB PUSH1 0x64 ADD SWAP1 REVERT JUMPDEST DUP2 PUSH1 0x1 PUSH1 0x1 PUSH1 0xA0 SHL SUB AND DUP2 PUSH1 0x1 PUSH1 0x1 PUSH1 0xA0 SHL SUB AND EQ PUSH2 0x5C1 JUMPI DUP1 PUSH2 0x5C4 JUMP JUMPDEST PUSH1 0x0 JUMPDEST PUSH1 0x1 PUSH1 0x1 PUSH1 0xA0 SHL SUB DUP4 DUP2 AND PUSH1 0x0 DUP2 DUP2 MSTORE PUSH1 0x1 PUSH1 0x20 MSTORE PUSH1 0x40 DUP1 DUP3 KECCAK256 DUP1 SLOAD PUSH1 0x1 PUSH1 0x1 PUSH1 0xA0 SHL SUB NOT AND SWAP6 DUP6 AND SWAP6 SWAP1 SWAP6 OR SWAP1 SWAP5 SSTORE SWAP3 MLOAD SWAP2 DUP5 AND SWAP3 SWAP1 SWAP2 PUSH32 0x605C2DBF762E5F7D60A546D42E7205DCB1B011EBC62A61736A57C9089D3A4350 SWAP2 SWAP1 LOG3 POP POP JUMP JUMPDEST PUSH1 0x0 DUP3 DUP3 PUSH1 0x40 MLOAD PUSH1 0x20 ADD DUP1 DUP4 DUP4 DUP1 DUP3 DUP5 CALLDATACOPY DUP1 DUP4 ADD SWAP3 POP POP POP SWAP3 POP POP POP PUSH1 0x40 MLOAD PUSH1 0x20 DUP2 DUP4 SUB SUB DUP2 MSTORE SWAP1 PUSH1 0x40 MSTORE DUP1 MLOAD SWAP1 PUSH1 0x20 ADD KECCAK256 SWAP1 POP JUMPDEST SWAP3 SWAP2 POP POP JUMP JUMPDEST PUSH2 0x669 DUP3 DUP3 PUSH2 0x753 JUMP JUMPDEST PUSH2 0x674 JUMPI PUSH1 0x0 PUSH2 0x676 JUMP JUMPDEST DUP2 JUMPDEST PUSH1 0x1 PUSH1 0x1 PUSH1 0xA0 SHL SUB SWAP3 DUP4 AND PUSH1 0x0 DUP2 DUP2 MSTORE PUSH1 0x20 DUP2 DUP2 MSTORE PUSH1 0x40 DUP1 DUP4 KECCAK256 PUSH1 0x1 PUSH1 0x1 PUSH1 0xE0 SHL SUB NOT SWAP7 SWAP1 SWAP7 AND DUP1 DUP5 MSTORE SWAP6 DUP3 MSTORE DUP1 DUP4 KECCAK256 DUP1 SLOAD PUSH1 0x1 PUSH1 0x1 PUSH1 0xA0 SHL SUB NOT AND SWAP6 SWAP1 SWAP8 AND SWAP5 SWAP1 SWAP5 OR SWAP1 SWAP6 SSTORE SWAP1 DUP2 MSTORE PUSH1 0x2 DUP5 MSTORE DUP2 DUP2 KECCAK256 SWAP3 DUP2 MSTORE SWAP2 SWAP1 SWAP3 MSTORE KECCAK256 DUP1 SLOAD PUSH1 0xFF NOT AND PUSH1 0x1 OR SWAP1 SSTORE JUMP JUMPDEST PUSH1 0x0 DUP1 PUSH1 0x1 PUSH1 0x1 PUSH1 0xA0 SHL SUB DUP5 AND ISZERO PUSH2 0x6F4 JUMPI DUP4 PUSH2 0x6F6 JUMP JUMPDEST CALLER JUMPDEST SWAP1 POP PUSH2 0x701 DUP4 PUSH2 0x873 JUMP JUMPDEST ISZERO PUSH2 0x727 JUMPI DUP3 PUSH2 0x711 DUP3 DUP3 PUSH2 0x7F5 JUMP JUMPDEST PUSH2 0x71C JUMPI PUSH1 0x0 PUSH2 0x71E JUMP JUMPDEST DUP2 JUMPDEST SWAP3 POP POP POP PUSH2 0x659 JUMP JUMPDEST PUSH1 0x1 PUSH1 0x1 PUSH1 0xA0 SHL SUB SWAP1 DUP2 AND PUSH1 0x0 SWAP1 DUP2 MSTORE PUSH1 0x20 DUP2 DUP2 MSTORE PUSH1 0x40 DUP1 DUP4 KECCAK256 DUP7 DUP5 MSTORE SWAP1 SWAP2 MSTORE SWAP1 KECCAK256 SLOAD AND SWAP1 POP SWAP3 SWAP2 POP POP JUMP JUMPDEST PUSH1 0x0 DUP1 DUP1 PUSH2 0x768 DUP6 PUSH4 0x1FFC9A7 PUSH1 0xE0 SHL PUSH2 0x880 JUMP JUMPDEST SWAP1 SWAP3 POP SWAP1 POP DUP2 ISZERO DUP1 PUSH2 0x778 JUMPI POP DUP1 ISZERO JUMPDEST ISZERO PUSH2 0x788 JUMPI PUSH1 0x0 SWAP3 POP POP POP PUSH2 0x659 JUMP JUMPDEST PUSH2 0x79A DUP6 PUSH1 0x1 PUSH1 0x1 PUSH1 0xE0 SHL SUB NOT PUSH2 0x880 JUMP JUMPDEST SWAP1 SWAP3 POP SWAP1 POP DUP2 ISZERO DUP1 PUSH2 0x7AB JUMPI POP DUP1 ISZERO ISZERO JUMPDEST ISZERO PUSH2 0x7BB JUMPI PUSH1 0x0 SWAP3 POP POP POP PUSH2 0x659 JUMP JUMPDEST PUSH2 0x7C5 DUP6 DUP6 PUSH2 0x880 JUMP JUMPDEST SWAP1 SWAP3 POP SWAP1 POP PUSH1 0x1 DUP3 EQ DUP1 ISZERO PUSH2 0x7DA JUMPI POP DUP1 PUSH1 0x1 EQ JUMPDEST ISZERO PUSH2 0x7EA JUMPI PUSH1 0x1 SWAP3 POP POP POP PUSH2 0x659 JUMP JUMPDEST POP PUSH1 0x0 SWAP5 SWAP4 POP POP POP POP JUMP JUMPDEST PUSH1 0x1 PUSH1 0x1 PUSH1 0xA0 SHL SUB DUP3 AND PUSH1 0x0 SWAP1 DUP2 MSTORE PUSH1 0x2 PUSH1 0x20 SWAP1 DUP2 MSTORE PUSH1 0x40 DUP1 DUP4 KECCAK256 PUSH1 0x1 PUSH1 0x1 PUSH1 0xE0 SHL SUB NOT DUP6 AND DUP5 MSTORE SWAP1 SWAP2 MSTORE DUP2 KECCAK256 SLOAD PUSH1 0xFF AND PUSH2 0x83B JUMPI PUSH2 0x834 DUP4 DUP4 PUSH2 0x753 JUMP JUMPDEST SWAP1 POP PUSH2 0x659 JUMP JUMPDEST POP PUSH1 0x1 PUSH1 0x1 PUSH1 0xA0 SHL SUB DUP1 DUP4 AND PUSH1 0x0 DUP2 DUP2 MSTORE PUSH1 0x20 DUP2 DUP2 MSTORE PUSH1 0x40 DUP1 DUP4 KECCAK256 PUSH1 0x1 PUSH1 0x1 PUSH1 0xE0 SHL SUB NOT DUP8 AND DUP5 MSTORE SWAP1 SWAP2 MSTORE SWAP1 KECCAK256 SLOAD SWAP1 SWAP2 AND EQ SWAP3 SWAP2 POP POP JUMP JUMPDEST PUSH1 0x1 PUSH1 0x1 PUSH1 0xE0 SHL SUB AND ISZERO SWAP1 JUMP JUMPDEST PUSH1 0x40 MLOAD PUSH4 0x1FFC9A7 PUSH1 0xE0 SHL DUP1 DUP3 MSTORE PUSH1 0x4 DUP3 ADD DUP4 SWAP1 MSTORE PUSH1 0x0 SWAP2 DUP3 SWAP2 SWAP1 PUSH1 0x20 DUP2 PUSH1 0x24 DUP2 DUP10 PUSH2 0x7530 STATICCALL SWAP1 MLOAD SWAP1 SWAP7 SWAP1 SWAP6 POP SWAP4 POP POP POP POP JUMP INVALID LOG1 PUSH5 0x736F6C6343 STOP SMOD MOD STOP EXP "
        },
        "gasEstimates": {
          "creation": {
            "codeDepositCost": "448200",
            "executionCost": "486",
            "totalCost": "448686"
          },
          "external": {
            "getInterfaceImplementer(address,bytes32)": "infinite",
            "getManager(address)": "2119",
            "implementsERC165Interface(address,bytes4)": "infinite",
            "implementsERC165InterfaceNoCache(address,bytes4)": "infinite",
            "interfaceHash(string)": "infinite",
            "setInterfaceImplementer(address,bytes32,address)": "infinite",
            "setManager(address,address)": "24714",
            "updateERC165Cache(address,bytes4)": "infinite"
          },
          "internal": {
            "isERC165Interface(bytes32)": "33",
            "noThrowCall(address,bytes4)": "infinite"
          }
        },
        "methodIdentifiers": {
          "getInterfaceImplementer(address,bytes32)": "aabbb8ca",
          "getManager(address)": "3d584063",
          "implementsERC165Interface(address,bytes4)": "f712f3e8",
          "implementsERC165InterfaceNoCache(address,bytes4)": "b7056765",
          "interfaceHash(string)": "65ba36c1",
          "setInterfaceImplementer(address,bytes32,address)": "29965a1d",
          "setManager(address,address)": "5df8122f",
          "updateERC165Cache(address,bytes4)": "a41e7d51"
        }
      },
      "storageLayout": {
        "storage": [
          {
            "astId": 34,
            "contract": "contracts/optimistic-ethereum/OVM/predeploys/ERC1820Registry.sol:ERC1820Registry",
            "label": "interfaces",
            "offset": 0,
            "slot": "0",
            "type": "t_mapping(t_address,t_mapping(t_bytes32,t_address))"
          },
          {
            "astId": 38,
            "contract": "contracts/optimistic-ethereum/OVM/predeploys/ERC1820Registry.sol:ERC1820Registry",
            "label": "managers",
            "offset": 0,
            "slot": "1",
            "type": "t_mapping(t_address,t_address)"
          },
          {
            "astId": 44,
            "contract": "contracts/optimistic-ethereum/OVM/predeploys/ERC1820Registry.sol:ERC1820Registry",
            "label": "erc165Cached",
            "offset": 0,
            "slot": "2",
            "type": "t_mapping(t_address,t_mapping(t_bytes4,t_bool))"
          }
        ],
        "types": {
          "t_address": {
            "encoding": "inplace",
            "label": "address",
            "numberOfBytes": "20"
          },
          "t_bool": {
            "encoding": "inplace",
            "label": "bool",
            "numberOfBytes": "1"
          },
          "t_bytes32": {
            "encoding": "inplace",
            "label": "bytes32",
            "numberOfBytes": "32"
          },
          "t_bytes4": {
            "encoding": "inplace",
            "label": "bytes4",
            "numberOfBytes": "4"
          },
          "t_mapping(t_address,t_address)": {
            "encoding": "mapping",
            "key": "t_address",
            "label": "mapping(address => address)",
            "numberOfBytes": "32",
            "value": "t_address"
          },
          "t_mapping(t_address,t_mapping(t_bytes32,t_address))": {
            "encoding": "mapping",
            "key": "t_address",
            "label": "mapping(address => mapping(bytes32 => address))",
            "numberOfBytes": "32",
            "value": "t_mapping(t_bytes32,t_address)"
          },
          "t_mapping(t_address,t_mapping(t_bytes4,t_bool))": {
            "encoding": "mapping",
            "key": "t_address",
            "label": "mapping(address => mapping(bytes4 => bool))",
            "numberOfBytes": "32",
            "value": "t_mapping(t_bytes4,t_bool)"
          },
          "t_mapping(t_bytes32,t_address)": {
            "encoding": "mapping",
            "key": "t_bytes32",
            "label": "mapping(bytes32 => address)",
            "numberOfBytes": "32",
            "value": "t_address"
          },
          "t_mapping(t_bytes4,t_bool)": {
            "encoding": "mapping",
            "key": "t_bytes4",
            "label": "mapping(bytes4 => bool)",
            "numberOfBytes": "32",
            "value": "t_bool"
          }
        }
      },
      "userdoc": {
        "events": {
          "InterfaceImplementerSet(address,bytes32,address)": {
            "notice": "Indicates a contract is the 'implementer' of 'interfaceHash' for 'addr'."
          },
          "ManagerChanged(address,address)": {
            "notice": "Indicates 'newManager' is the address of the new manager for 'addr'."
          }
        },
        "kind": "user",
        "methods": {
          "getInterfaceImplementer(address,bytes32)": {
            "notice": "Query if an address implements an interface and through which contract."
          },
          "getManager(address)": {
            "notice": "Get the manager of an address."
          },
          "implementsERC165InterfaceNoCache(address,bytes4)": {
            "notice": "Checks whether a contract implements an ERC165 interface or not without using nor updating the cache."
          },
          "interfaceHash(string)": {
            "notice": "Compute the keccak256 hash of an interface given its name."
          },
          "setInterfaceImplementer(address,bytes32,address)": {
            "notice": "Sets the contract which implements a specific interface for an address. Only the manager defined for that address can set it. (Each address is the manager for itself until it sets a new manager.)"
          },
          "setManager(address,address)": {
            "notice": "Sets '_newManager' as manager for '_addr'. The new manager will be able to call 'setInterfaceImplementer' for '_addr'."
          },
          "updateERC165Cache(address,bytes4)": {
            "notice": "Updates the cache with whether the contract implements an ERC165 interface or not."
          }
        },
        "version": 1
      }
    }
  }
}