{
  "_format": "hh-sol-artifact-1",
  "contractName": "TestLib_SecureMerkleTrie",
  "sourceName": "contracts/test-libraries/trie/TestLib_SecureMerkleTrie.sol",
  "abi": [
    {
      "inputs": [
        {
          "internalType": "bytes",
          "name": "_key",
          "type": "bytes"
        },
        {
          "internalType": "bytes",
          "name": "_proof",
          "type": "bytes"
        },
        {
          "internalType": "bytes32",
          "name": "_root",
          "type": "bytes32"
        }
      ],
      "name": "get",
      "outputs": [
        {
          "internalType": "bool",
          "name": "",
          "type": "bool"
        },
        {
          "internalType": "bytes",
          "name": "",
          "type": "bytes"
        }
      ],
      "stateMutability": "pure",
      "type": "function"
    },
    {
      "inputs": [
        {
          "internalType": "bytes",
          "name": "_key",
          "type": "bytes"
        },
        {
          "internalType": "bytes",
          "name": "_value",
          "type": "bytes"
        }
      ],
      "name": "getSingleNodeRootHash",
      "outputs": [
        {
          "internalType": "bytes32",
          "name": "",
          "type": "bytes32"
        }
      ],
      "stateMutability": "pure",
      "type": "function"
    },
    {
      "inputs": [
        {
          "internalType": "bytes",
          "name": "_key",
          "type": "bytes"
        },
        {
          "internalType": "bytes",
          "name": "_value",
          "type": "bytes"
        },
        {
          "internalType": "bytes",
          "name": "_proof",
          "type": "bytes"
        },
        {
          "internalType": "bytes32",
          "name": "_root",
          "type": "bytes32"
        }
      ],
      "name": "update",
      "outputs": [
        {
          "internalType": "bytes32",
          "name": "",
          "type": "bytes32"
        }
      ],
      "stateMutability": "pure",
      "type": "function"
    },
    {
      "inputs": [
        {
          "internalType": "bytes",
          "name": "_key",
          "type": "bytes"
        },
        {
          "internalType": "bytes",
          "name": "_proof",
          "type": "bytes"
        },
        {
          "internalType": "bytes32",
          "name": "_root",
          "type": "bytes32"
        }
      ],
      "name": "verifyExclusionProof",
      "outputs": [
        {
          "internalType": "bool",
          "name": "",
          "type": "bool"
        }
      ],
      "stateMutability": "pure",
      "type": "function"
    },
    {
      "inputs": [
        {
          "internalType": "bytes",
          "name": "_key",
          "type": "bytes"
        },
        {
          "internalType": "bytes",
          "name": "_value",
          "type": "bytes"
        },
        {
          "internalType": "bytes",
          "name": "_proof",
          "type": "bytes"
        },
        {
          "internalType": "bytes32",
          "name": "_root",
          "type": "bytes32"
        }
      ],
      "name": "verifyInclusionProof",
      "outputs": [
        {
          "internalType": "bool",
          "name": "",
          "type": "bool"
        }
      ],
      "stateMutability": "pure",
      "type": "function"
    }
  ],
  "bytecode": "0x60806040523480156200001c576000806200001962000023565b50505b5062000090565b632a2a7adb598160e01b8152600481016020815285602082015260005b868110156200005d57808601518282016040015260200162000040565b506020828760640184336000905af158600e01573d6000803e3d6000fd5b3d6001141558600a015760016000f35b505050565b61265a80620000a06000396000f3fe60806040523480156100195760008061001661228f565b50505b50600436106100605760003560e01c806304bc7eec1461006e578063120c4a221461009757806349fba193146100b8578063cd4a7695146100d8578063e8e72100146100eb575b60008061006b61228f565b50505b61008161007c366004612429565b6100fe565b60405161008e9190612592565b60405180910390f35b6100aa6100a5366004612429565b610115565b60405161008e92919061259d565b6100cb6100c63660046123ae565b610130565b60405161008e919061255c565b6100cb6100e63660046124ad565b610145565b6100816100f93660046124ad565b61015e565b600061010b84848461016c565b90505b9392505050565b6000606061012485858561018e565b91509150935093915050565b600061013c83836101b7565b90505b92915050565b6000610153858585856101cf565b90505b949350505050565b6000610153858585856101f3565b6000806101788561020d565b905061018581858561023e565b95945050505050565b60006060600061019d8661020d565b90506101aa818686610257565b9250925050935093915050565b6000806101c38461020d565b90506101568184610332565b6000806101db8661020d565b90506101e981868686610355565b9695505050505050565b6000806101ff8661020d565b90506101e9818686866103d5565b60608180519060200120604051602001610227919061255c565b60405160208183030381529060405290505b919050565b60008061024c858585610257565b501595945050505050565b60006060600061026685610406565b90506000806000610278848a896104e4565b92509250925060008251159050808061028e5750815b6102e75760405162461bcd60e51b815260206004820152601a60248201527f50726f76696465642070726f6f6620697320696e76616c69642e0000000000006044820152606401604051809103906102e461228f565b50505b600081610301576040516020810160405260008152610320565b61032086600187038151811061031357fe5b60200260200101516108ab565b919b919a509098505050505050505050565b6000610346610340846108c8565b836109c7565b51805190602001209392505050565b60006040516040808201905260018152600160ff1b60208201528051906020012082141561038e576103878585610332565b9050610156565b600061039984610406565b90506000806103a98389876104e4565b509150915060006103bc8484848b610a6b565b90506103c8818a610d80565b9998505050505050505050565b60008060006103e5878686610257565b915091508180156103fb57506103fb8682610ed9565b979650505050505050565b6060600061041383610ef3565b9050600081516001600160401b03811180156104375760008061043461228f565b50505b5060405190808252806020026020018201604052801561047157816020015b61045e6122fa565b8152602001906001900390816104565790505b50905060005b82518110156104dc57600061049e84838151811061049157fe5b6020026020010151610f06565b905060405180604001604052808281526020016104ba83610ef3565b90528383815181106104c857fe5b602090810291909101015250600101610477565b509392505050565b600060608180806104f4876108c8565b9050856000806105026122fa565b60005b8c51811015610883578c818151811061051a57fe5b6020026020010151600197909701969383019391508361059157848251805190602001201461058c5760405162461bcd60e51b8152602060048201526011602482015270092dcecc2d8d2c840e4dedee840d0c2e6d607b1b60448201526064016040518091039061058961228f565b50505b610661565b6020825151106105fc57848251805190602001201461058c5760405162461bcd60e51b815260206004820152601b60248201527f496e76616c6964206c6172676520696e7465726e616c2068617368000000000060448201526064016040518091039061058961228f565b846106078351610f94565b146106615760405162461bcd60e51b815260206004820152601a60248201527f496e76616c696420696e7465726e616c206e6f6465206861736800000000000060448201526064016040518091039061065e61228f565b50505b601160208301515114156106ca57855184141561067d57610883565b600086858151811061068b57fe5b602001015160f81c9050600060208401518260ff16815181106106aa57fe5b602002602001015190506106bd81610fdc565b965060019450505061087b565b600282602001515114156108265760006106e38361100f565b90506000816000815181106106f457fe5b602001015160f81c90506001811660020360006107148460ff841661102d565b905060006107228b8a61102d565b90506000610730838361105a565b905060ff851660021480610747575060ff85166003145b156107795780835114801561075c5750808251145b1561076657988901985b50600160ff1b9950610883945050505050565b60ff8516158061078c575060ff85166001145b156107dc57825181146107ac5750600160ff1b9950610883945050505050565b6107cd88602001516001815181106107c057fe5b6020026020010151610fdc565b9a50975061087b945050505050565b60405162461bcd60e51b8152600401808060200182810382526026815260200180612634602691396040019150506040518091039061081961228f565b505050505050505061087b565b60405162461bcd60e51b815260206004820152601d60248201527f526563656976656420616e20756e706172736561626c65206e6f64652e00000060448201526064016040518091039061087861228f565b50505b600101610505565b50600160ff1b841486610896878661102d565b909e909d50909b509950505050505050505050565b606061013f82602001516001846020015151038151811061049157fe5b6060600082516002026001600160401b03811180156108ef576000806108ec61228f565b50505b50604051818152601f19601f830116810160200160405290801561091a576020820181803683370190505b50905060005b83518110156109c057600484828151811061093757fe5b60200101516001600160f81b031916901c82600283028151811061095757fe5b60200101906001600160f81b031916908160001a905350601084828151811061097c57fe5b602001015160f81c8161098b57fe5b0660f81b8282600202600101815181106109a157fe5b60200101906001600160f81b031916908160001a905350600101610920565b5092915050565b6109cf6122fa565b60006002604051908082528060200260200182016040528015610a0657816020015b60608152602001906001900390816109f15790505b5090506000610a168560016110ba565b9050610a29610a248261121d565b6112f4565b82600081518110610a3657fe5b6020026020010181905250610a4a846112f4565b82600181518110610a5757fe5b60200260200101819052506101858261135d565b606082600086600019870181518110610a8057fe5b602002602001015190506000610a9582611395565b905060006003604051908082528060200260200182016040528015610ad457816020015b610ac16122fa565b815260200190600190039081610ab95790505b50905060008451158015610af357506002836002811115610af157fe5b145b15610b2957610b0a610b0485611476565b886109c7565b828281518110610b1657fe5b6020908102919091010152600101610d63565b6000836002811115610b3757fe5b1415610b9d578451610b6c57610b4d8488611489565b828281518110610b5957fe5b6020908102919091010152600101610b98565b83828281518110610b7957fe5b6020026020010181905250600181019050610b0a610b0486600161102d565b610d63565b6000610ba885611476565b90506000610bb6828861105a565b90508015610c17576000610bcc836000846114d7565b9050610be081610bdb8c611640565b611681565b858581518110610bec57fe5b6020026020010181905250600184019350610c07838361102d565b9250610c13888361102d565b9750505b6000610c216116d0565b90508251610c4257610c3b81610c36896108ab565b611489565b9050610cd7565b600083600081518110610c5157fe5b602001015160f81c9050610c6684600161102d565b93506002876002811115610c7657fe5b1415610cae576000610c9085610c8b8b6108ab565b6109c7565b9050610ca68383610ca18451611640565b611765565b925050610cd5565b835115610cc4576000610c9085610bdb8b6108ab565b610cd28282610ca18b6108ab565b91505b505b8751610d0c57610ce7818b611489565b905080858581518110610cf657fe5b6020026020010181905250600184019350610d5f565b610d1788600161102d565b975080858581518110610d2657fe5b6020026020010181905250600184019350610d41888b6109c7565b858581518110610d4d57fe5b60200260200101819052506001840193505b5050505b610d728a60018b0384846117be565b9a9950505050505050505050565b600080610d8c836108c8565b9050610d966122fa565b600060606000875190505b8015610ec457876001820381518110610db657fe5b60200260200101519350610dc984611395565b92506002836002811115610dd957fe5b1415610e04576000610dea85611476565b9050610dfc86600083518951036114d7565b955050610eaf565b6001836002811115610e1257fe5b1415610e54576000610e2385611476565b9050610e3586600083518951036114d7565b9550600083511115610e4e57610e4b8184611681565b94505b50610eaf565b6000836002811115610e6257fe5b1415610eaf57600082511115610eaf57600085600187510381518110610e8457fe5b602001015160f81c9050610e9e86600060018251036114d7565b9550610eab858285611765565b9450505b610eb98451611640565b915060001901610da1565b50825180519060200120979650505050505050565b600081805190602001208380519060200120149392505050565b606061013f610f01836118a9565b6118d1565b60606000806000610f1685611a5d565b919450925090506000816001811115610f2b57fe5b14610f855760405162461bcd60e51b815260206004820152601860248201527f496e76616c696420524c502062797465732076616c75652e0000000000000000604482015260640160405180910390610f8261228f565b50505b61018585602001518484611db8565b6000602082511015610fb0576000602083015191506102399050565b6020820182516020811015610fcd57600080610fca61228f565b50505b81019080805195945050505050565b60006060602083511015610ffa57610ff383611e69565b9050611006565b61100383610f06565b90505b61010e81610f94565b606061013f611028836020015160008151811061049157fe5b6108c8565b60608183510361104c576040516020810160405260008152905061013f565b61013c8383848651036114d7565b6000805b80845111801561106e5750808351115b80156110ad575082818151811061108157fe5b60200101516001600160f81b03191684828151811061109c57fe5b60200101516001600160f81b031916145b1561013c5760010161105e565b60606000826110ca5760006110cd565b60025b9050600060028551816110dc57fe5b06905060008160020360ff166001600160401b03811180156111065760008061110361228f565b50505b50604051818152601f19601f8301168101602001604052908015611131576020820181803683370190505b50905081830160f81b8160008151811061114757fe5b60200101906001600160f81b031916908160001a90535080866040516020018083805190602001908083835b602083106111925780518252601f199092019160209182019101611173565b6001836020036101000a038019825116818451161790925250505091909101905082805190602001908083835b602083106111de5780518252601f1990920191602091820191016111bf565b6001836020036101000a038019825116818451161790925250505091909101935060409250505051602081830303815290604052935050505092915050565b60606000600283518161122c57fe5b046001600160401b038111801561124b5760008061124861228f565b50505b50604051818152601f19601f8301168101602001604052908015611276576020820181803683370190505b50905060005b81518110156109c05783816002026001018151811061129757fe5b60200101516001600160f81b03191660048560028402815181106112b757fe5b60200101516001600160f81b031916901b178282815181106112d557fe5b60200101906001600160f81b031916908160001a90535060010161127c565b6060808251600114801561131c575060808360008151811061131257fe5b602001015160f81c105b1561132857508161013f565b61133483516080611e74565b83604051602001611346929190612565565b604051602081830303815290604052905092915050565b6113656122fa565b600061137083611fdd565b9050604051806040016040528082815260200161138c83610ef3565b90529392505050565b6000601160208301515114156113ad57506000610239565b600282602001515114156114295760006113c68361100f565b90506000816000815181106113d757fe5b602001015160f81c905060028114806113f3575060ff81166003145b1561140357600292505050610239565b60ff81161580611416575060ff81166001145b1561142657600192505050610239565b50505b60405162461bcd60e51b8152602060048201526011602482015270496e76616c6964206e6f6465207479706560781b60448201526064016040518091039061146f61228f565b5050919050565b606061013f6114848361100f565b612021565b6114916122fa565b600061149c836112f4565b90506114a7816118a9565b8460200151600186602001515103815181106114bf57fe5b6020026020010181905250610156846020015161206a565b60608182601f01101561152a5760405162461bcd60e51b815260206004820152600e60248201526d736c6963655f6f766572666c6f7760901b60448201526064016040518091039061152761228f565b50505b82828401101561157a5760405162461bcd60e51b815260206004820152600e60248201526d736c6963655f6f766572666c6f7760901b60448201526064016040518091039061157761228f565b50505b818301845110156115ce5760405162461bcd60e51b8152602060048201526011602482015270736c6963655f6f75744f66426f756e647360781b6044820152606401604051809103906115cb61228f565b50505b6060821580156115ed5760405191506000825260208201604052611637565b6040519150601f8416801560200281840101858101878315602002848b0101015b8183101561162657805183526020928301920161160e565b5050858452601f01601f1916604052505b50949350505050565b6060602082511015611653575080610239565b8180519060200120604051602001808281526020019150506040516020818303038152906040529050610239565b6116896122fa565b600060026040519080825280602002602001820160405280156116c057816020015b60608152602001906001900390816116ab5790505b5090506000610a168560006110ba565b6116d86122fa565b6000601160405190808252806020026020018201604052801561170f57816020015b60608152602001906001900390816116fa5790505b50905060005b8151811015611755576040516040808201905260018152600160ff1b602082015282828151811061174257fe5b6020908102919091010152600101611715565b5061175f8161135d565b91505090565b61176d6122fa565b6000602083511061178657611781836112f4565b611788565b825b9050611793816118a9565b85602001518560ff16815181106117a657fe5b6020026020010181905250610185856020015161206a565b606060008285016001600160401b03811180156117e3576000806117e061228f565b50505b5060405190808252806020026020018201604052801561181d57816020015b61180a6122fa565b8152602001906001900390816118025790505b50905060005b8581101561185e5786818151811061183757fe5b602002602001015182828151811061184b57fe5b6020908102919091010152600101611823565b5060005b8381101561189f5784818151811061187657fe5b6020026020010151828783018151811061188c57fe5b6020908102919091010152600101611862565b5095945050505050565b6118b1612311565b602082016040518060400160405280845181526020019190915292915050565b60606000806118df84611a5d565b919350909150600190508160018111156118f557fe5b1461194f5760405162461bcd60e51b815260206004820152601760248201527f496e76616c696420524c50206c6973742076616c75652e00000000000000000060448201526064016040518091039061194c61228f565b50505b6000602060405190808252806020026020018201604052801561198c57816020015b611979612311565b8152602001906001900390816119715790505b5090506000835b8651811015611a5257602082106119e45760405162461bcd60e51b815260040180806020018281038252602a81526020018061260a602a9139604001915050604051809103906119e161228f565b50505b600080611a0c6040516040808201905280858c51038152602001858c60200151019052611a5d565b509150915060405180604001604052808383018152602001848b60200151019052858581518110611a3957fe5b6020908102919091010152600193909301920101611993565b508152949350505050565b6000808080845111611abe5760405162461bcd60e51b815260206004820152601860248201527f524c50206974656d2063616e6e6f74206265206e756c6c2e0000000000000000604482015260640160405180910390611abb61228f565b50505b6000846020015190506000815160001a9050607f8111611aeb576000600160009450945094505050611db1565b60b78111611b6757607f19810180875111611b555760405162461bcd60e51b815260206004820152601960248201527f496e76616c696420524c502073686f727420737472696e672e00000000000000604482015260640160405180910390611b5261228f565b50505b60019550935060009250611db1915050565b60bf8111611c575760b619810180875111611bd15760405162461bcd60e51b815260206004820152601f60248201527f496e76616c696420524c50206c6f6e6720737472696e67206c656e6774682e00604482015260640160405180910390611bce61228f565b50505b6000816020036101000a6001850151049050818101885111611c425760405162461bcd60e51b815260206004820152601860248201527f496e76616c696420524c50206c6f6e6720737472696e672e0000000000000000604482015260640160405180910390611c3f61228f565b50505b60019091019550935060009250611db1915050565b60f78111611cd25760bf19810180875111611cc15760405162461bcd60e51b815260206004820152601760248201527f496e76616c696420524c502073686f7274206c6973742e000000000000000000604482015260640160405180910390611cbe61228f565b50505b600195509350849250611db1915050565b60f619810180875111611d345760405162461bcd60e51b815260206004820152601d60248201527f496e76616c696420524c50206c6f6e67206c697374206c656e6774682e000000604482015260640160405180910390611d3161228f565b50505b6000816020036101000a6001850151049050818101885111611d9e5760405162461bcd60e51b815260206004820152601660248201527524b73b30b634b210292628103637b733903634b9ba1760511b604482015260640160405180910390611d9b61228f565b50505b6001918201965094509250611db1915050565b9193909250565b60606000826001600160401b0381118015611ddb57600080611dd861228f565b50505b50604051818152601f19601f8301168101602001604052908015611e06576020820181803683370190505b5090508051611e1657905061010e565b8484016020820160005b60208604811015611e41578251825260209283019290910190600101611e20565b50600019601f86166020036101000a0180825116811984511617909152509095945050505050565b606061013f8261211c565b6060806038841015611ede576001604051818152601f19601f8301168101602001604052908015611eac576020820181803683370190505b50905082840160f81b81600081518110611ec257fe5b60200101906001600160f81b031916908160001a90535061013c565b600060015b808681611eec57fe5b0415611f015760019091019061010002611ee3565b816001016001600160401b0381118015611f2357600080611f2061228f565b50505b50604051818152601f19601f8301168101602001604052908015611f4e576020820181803683370190505b50925084820160370160f81b83600081518110611f6757fe5b60200101906001600160f81b031916908160001a905350600190505b818111611fd3576101008183036101000a8781611f9c57fe5b0481611fa457fe5b0660f81b838281518110611fb457fe5b60200101906001600160f81b031916908160001a905350600101611f83565b5050905092915050565b60606000611fea8361212f565b9050611ff8815160c0611e74565b8160405160200161200a929190612565565b604051602081830303815290604052915050919050565b606060028260008151811061203257fe5b602001015160f81c8161204157fe5b0660ff166000141561205f5761205882600261102d565b9050610239565b61205882600161102d565b6120726122fa565b600082516001600160401b03811180156120945760008061209161228f565b50505b506040519080825280602002602001820160405280156120c857816020015b60608152602001906001900390816120b35790505b50905060005b8351811015612112576120f38482815181106120e657fe5b6020026020010151611e69565b8282815181106120ff57fe5b60209081029190910101526001016120ce565b5061010e8161135d565b606061013f826020015160008451611db8565b6060815161216b576000604051818152601f19601f8301168101602001604052908015612163576020820181803683370190505b509050610239565b6000805b83518110156121995783818151811061218457fe5b6020026020010151519091019060010161216f565b6000826001600160401b03811180156121ba576000806121b761228f565b50505b50604051818152601f19601f83011681016020016040529080156121e5576020820181803683370190505b50600092509050602081015b855183101561163757600086848151811061220857fe5b602002602001015190506020810161222283828451612249565b87858151811061222e57fe5b60200260200101515160019095019490920191506121f19050565b8282825b6020811061226d57815183526020928301929190910190601f190161224d565b60001960208290036101000a0180198351168185511617909352505050505050565b632a2a7adb598160e01b8152600481016020815285602082015260005b868110156122c75780860151828201604001526020016122ac565b506020828760640184336000905af158600e01573d6000803e3d6000fd5b3d6001141558600a015760016000f35b505050565b604051604080820190526060808252602082015290565b604051604080820190526000808252602082015290565b600082601f83011261234157808161233e61228f565b50505b81356001600160401b038082111561235557fe5b604051601f8301601f19168101602001828111828210171561237357fe5b60405282815284830160200186101561239357838461239061228f565b50505b82602086016020830137918201602001929092529392505050565b600080604083850312156123c95781826123c661228f565b50505b82356001600160401b03808211156123e85783846123e561228f565b50505b6123f486838701612328565b9350602085013591508082111561241257828361240f61228f565b50505b5061241f85828601612328565b9150509250929050565b60008060006060848603121561244657808161244361228f565b50505b83356001600160401b038082111561246557828361246261228f565b50505b61247187838801612328565b9450602086013591508082111561248f57828361248c61228f565b50505b5061249c86828701612328565b925050604084013590509250925092565b600080600080608085870312156124cb5780816124c861228f565b50505b84356001600160401b03808211156124ea5782836124e761228f565b50505b6124f688838901612328565b9550602087013591508082111561251457828361251161228f565b50505b61252088838901612328565b9450604087013591508082111561253e57828361253b61228f565b50505b5061254b87828801612328565b949793965093946060013593505050565b90815260200190565b600083516125778184602088016125d9565b820183516125898183602088016125d9565b01949350505050565b901515815260200190565b600083151582526040602083015282518060408401526125c48160608501602087016125d9565b601f01601f1916919091016060019392505050565b60005b838110156125f45780820151838201526020016125dc565b83811115612603576000848401525b5050505056fe50726f766964656420524c50206c6973742065786365656473206d6178206c697374206c656e6774682e52656365697665642061206e6f6465207769746820616e20756e6b6e6f776e20707265666978",
  "linkReferences": {},
  "deployedLinkReferences": {}
}