{
  "_format": "hh-sol-artifact-1",
  "contractName": "OVM_L1CustomCrossDomainMessenger",
  "sourceName": "contracts/optimistic-ethereum/OVM/bridge/messaging/OVM_L1CustomCrossDomainMessenger.sol",
  "abi": [
    {
      "inputs": [],
      "stateMutability": "nonpayable",
      "type": "constructor"
    },
    {
      "anonymous": false,
      "inputs": [
        {
          "indexed": false,
          "internalType": "bytes32",
          "name": "msgHash",
          "type": "bytes32"
        }
      ],
      "name": "FailedRelayedMessage",
      "type": "event"
    },
    {
      "anonymous": false,
      "inputs": [
        {
          "indexed": false,
          "internalType": "bytes32",
          "name": "msgHash",
          "type": "bytes32"
        }
      ],
      "name": "RelayedMessage",
      "type": "event"
    },
    {
      "anonymous": false,
      "inputs": [
        {
          "indexed": false,
          "internalType": "bytes",
          "name": "message",
          "type": "bytes"
        }
      ],
      "name": "SentMessage",
      "type": "event"
    },
    {
      "inputs": [
        {
          "internalType": "address",
          "name": "_libAddressManager",
          "type": "address"
        }
      ],
      "name": "initialize",
      "outputs": [],
      "stateMutability": "nonpayable",
      "type": "function"
    },
    {
      "inputs": [],
      "name": "libAddressManager",
      "outputs": [
        {
          "internalType": "contract Lib_AddressManager",
          "name": "",
          "type": "address"
        }
      ],
      "stateMutability": "view",
      "type": "function"
    },
    {
      "inputs": [],
      "name": "messageNonce",
      "outputs": [
        {
          "internalType": "uint256",
          "name": "",
          "type": "uint256"
        }
      ],
      "stateMutability": "view",
      "type": "function"
    },
    {
      "inputs": [
        {
          "internalType": "address",
          "name": "_target",
          "type": "address"
        },
        {
          "internalType": "address",
          "name": "_sender",
          "type": "address"
        },
        {
          "internalType": "bytes",
          "name": "_message",
          "type": "bytes"
        },
        {
          "internalType": "uint256",
          "name": "_messageNonce",
          "type": "uint256"
        },
        {
          "components": [
            {
              "internalType": "bytes32",
              "name": "stateRoot",
              "type": "bytes32"
            },
            {
              "components": [
                {
                  "internalType": "uint256",
                  "name": "batchIndex",
                  "type": "uint256"
                },
                {
                  "internalType": "bytes32",
                  "name": "batchRoot",
                  "type": "bytes32"
                },
                {
                  "internalType": "uint256",
                  "name": "batchSize",
                  "type": "uint256"
                },
                {
                  "internalType": "uint256",
                  "name": "prevTotalElements",
                  "type": "uint256"
                },
                {
                  "internalType": "bytes",
                  "name": "extraData",
                  "type": "bytes"
                }
              ],
              "internalType": "struct Lib_OVMCodec.ChainBatchHeader",
              "name": "stateRootBatchHeader",
              "type": "tuple"
            },
            {
              "components": [
                {
                  "internalType": "uint256",
                  "name": "index",
                  "type": "uint256"
                },
                {
                  "internalType": "bytes32[]",
                  "name": "siblings",
                  "type": "bytes32[]"
                }
              ],
              "internalType": "struct Lib_OVMCodec.ChainInclusionProof",
              "name": "stateRootProof",
              "type": "tuple"
            },
            {
              "internalType": "bytes",
              "name": "stateTrieWitness",
              "type": "bytes"
            },
            {
              "internalType": "bytes",
              "name": "storageTrieWitness",
              "type": "bytes"
            }
          ],
          "internalType": "struct iOVM_L1CrossDomainMessenger.L2MessageInclusionProof",
          "name": "_proof",
          "type": "tuple"
        }
      ],
      "name": "relayMessage",
      "outputs": [],
      "stateMutability": "nonpayable",
      "type": "function"
    },
    {
      "inputs": [
        {
          "internalType": "bytes32",
          "name": "",
          "type": "bytes32"
        }
      ],
      "name": "relayedMessages",
      "outputs": [
        {
          "internalType": "bool",
          "name": "",
          "type": "bool"
        }
      ],
      "stateMutability": "view",
      "type": "function"
    },
    {
      "inputs": [
        {
          "internalType": "address",
          "name": "_target",
          "type": "address"
        },
        {
          "internalType": "address",
          "name": "_sender",
          "type": "address"
        },
        {
          "internalType": "bytes",
          "name": "_message",
          "type": "bytes"
        },
        {
          "internalType": "uint256",
          "name": "_messageNonce",
          "type": "uint256"
        },
        {
          "internalType": "uint32",
          "name": "_gasLimit",
          "type": "uint32"
        }
      ],
      "name": "replayMessage",
      "outputs": [],
      "stateMutability": "nonpayable",
      "type": "function"
    },
    {
      "inputs": [
        {
          "internalType": "string",
          "name": "_name",
          "type": "string"
        }
      ],
      "name": "resolve",
      "outputs": [
        {
          "internalType": "address",
          "name": "",
          "type": "address"
        }
      ],
      "stateMutability": "view",
      "type": "function"
    },
    {
      "inputs": [
        {
          "internalType": "address",
          "name": "_target",
          "type": "address"
        },
        {
          "internalType": "bytes",
          "name": "_message",
          "type": "bytes"
        },
        {
          "internalType": "uint32",
          "name": "_gasLimit",
          "type": "uint32"
        }
      ],
      "name": "sendMessage",
      "outputs": [],
      "stateMutability": "nonpayable",
      "type": "function"
    },
    {
      "inputs": [
        {
          "internalType": "bytes32",
          "name": "",
          "type": "bytes32"
        }
      ],
      "name": "sentMessages",
      "outputs": [
        {
          "internalType": "bool",
          "name": "",
          "type": "bool"
        }
      ],
      "stateMutability": "view",
      "type": "function"
    },
    {
      "inputs": [
        {
          "internalType": "bytes32",
          "name": "",
          "type": "bytes32"
        }
      ],
      "name": "successfulMessages",
      "outputs": [
        {
          "internalType": "bool",
          "name": "",
          "type": "bool"
        }
      ],
      "stateMutability": "view",
      "type": "function"
    },
    {
      "inputs": [],
      "name": "xDomainMessageSender",
      "outputs": [
        {
          "internalType": "address",
          "name": "",
          "type": "address"
        }
      ],
      "stateMutability": "view",
      "type": "function"
    }
  ],
  "bytecode": "0x608060405261dead60046001816200001662000096565b816001600160a01b0302191690836001600160a01b03160217906200003a620000f8565b50505034801562000055576000806200005262000147565b50505b5060008060056001816200006862000096565b816001600160a01b0302191690836001600160a01b03160217906200008c620000f8565b50505050620001b4565b6303daa959598160e01b8152836004820152602081602483336000905af158600e01573d6000803e3d6000fd5b3d6001141558600a015760016000f35b8051935060005b6040811015620000f357600082820152602001620000da565b505050565b6322bd64c0598160e01b8152836004820152846024820152600081604483336000905af158600e01573d6000803e3d6000fd5b3d6001141558600a015760016000f35b600081526020620000da565b632a2a7adb598160e01b8152600481016020815285602082015260005b868110156200018157808601518282016040015260200162000164565b506020828760640184336000905af158600e01573d6000803e3d6000fd5b3d6001141558600a015760016000f35b505050565b612cb980620001c46000396000f3fe608060405234801561001957600080610016611e00565b50505b50600436106100b25760003560e01c8063706ceab61161007a578063706ceab61461012e57806382e3702d14610141578063b1b1b20914610154578063c4d66de814610167578063d7fd19dd1461017a578063ecc704281461018d576100b2565b806321d800ec146100c0578063299ca478146100e95780633dbb202b146100fe578063461a4478146101135780636e296e4514610126575b6000806100bd611e00565b50505b6100d36100ce366004612709565b6101a2565b6040516100e091906128df565b60405180910390f35b6100f16101c9565b6040516100e0919061288e565b61011161010c366004612663565b6101e8565b005b6100f161012136600461272a565b6102b6565b6100f16103e1565b61011161013c3660046125da565b61045b565b6100d361014f366004612709565b6104e7565b6100d3610162366004612709565b610501565b610111610175366004612440565b61051b565b610111610188366004612463565b6105df565b6101956108ee565b6040516100e091906127d7565b6000602052806000526040600020600091506101bc611e6b565b906101000a900460ff1681565b600060056101d5611e6b565b906101000a90046001600160a01b031681565b6000610207845a6101f7611ecb565b856003610202611e6b565b6108fb565b90506001600360008282610219611e6b565b019250508190610227611f11565b50505060016002600083805190602001208152602001908152602001600020600181610251611e6b565b8160ff02191690831515021790610266611f11565b505050610279818363ffffffff1661094c565b7f0ee9ffdb2334d78de97ffb066b23a352a4d35180cefb36589d663fbb1eb6f326816040516102a89190612994565b60405180910390a150505050565b60008060056102c3611e6b565b906101000a90046001600160a01b03166001600160a01b031663bf40fac1836040518263ffffffff1660e01b81526004018080602001828103825283818151815260200191508051906020019080838360005b8381101561032e578082015183820152602001610316565b50505050905090810190601f16801561035b5780820380516001836020036101000a031916815260200191505b50925050506020604051808303818680610373611f5f565b15801561038857600080610385611e00565b50505b505a610392611fab565b50505050501580156103b1573d6000803e3d60006103ae611e00565b50505b505050506040513d60208110156103d0576000806103cd611e00565b50505b81019080805193505050505b919050565b600061dead8160046103f1611e6b565b906101000a90046001600160a01b03166001600160a01b0316141561043a5760405162461bcd60e51b8152600401610428906129a7565b60405180910390610437611e00565b50505b60006004610446611e6b565b906101000a90046001600160a01b0316905090565b6000610469868686866108fb565b90506002600082805190602001208152602001908152602001600020600090610490611e6b565b906101000a900460ff16151560011515146104cf5760405162461bcd60e51b81526004016104bd90612a9c565b604051809103906104cc611e00565b50505b6104df818363ffffffff1661094c565b505050505050565b6002602052806000526040600020600091506101bc611e6b565b6001602052806000526040600020600091506101bc611e6b565b6000806005610528611e6b565b906101000a90046001600160a01b03166001600160a01b0316146105705760405162461bcd60e51b815260040161055e90612b84565b6040518091039061056d611e00565b50505b80600560018161057e611e6b565b816001600160a01b0302191690836001600160a01b03160217906105a0611f11565b50505061dead600460006101000a816105b7611e6b565b816001600160a01b0302191690836001600160a01b03160217906105d9611f11565b50505050565b600061061460405160408082019052601481527327ab26afa61926b2b9b9b0b3b2a932b630bcb2b960611b60208201526102b6565b90506001600160a01b0381161561067057806001600160a01b03165a610638611ecb565b6001600160a01b0316146106705760405162461bcd60e51b815260040161065e90612ae7565b6040518091039061066d611e00565b50505b600061067e878787876108fb565b905061068a8184610973565b15156001146106bd5760405162461bcd60e51b81526004016106ab90612b3d565b604051809103906106ba611e00565b50505b6000818051906020012060008181526001602052909150604090206000906106e3611e6b565b60ff6101009290920a9004161561071e5760405162461bcd60e51b815260040161070c906129de565b6040518091039061071b611e00565b50505b86600460018161072c611e6b565b816001600160a01b0302191690836001600160a01b031602179061074e611f11565b5050506000886001600160a01b03168760405161076b91906127ee565b6000604051808303816000865a610780612096565b5050505050509150503d80600081146107b5576040513d603f01601f191681016040523d815291503d6000602084013e6107ba565b606091505b5050905061dead600460006101000a816107d2611e6b565b816001600160a01b0302191690836001600160a01b03160217906107f4611f11565b5050506001811515141561086e57600082815260016020819052906040902060018161081e611e6b565b8160ff02191690831515021790610833611f11565b5050507f4641df4a962071e12719d8c8c8e5ac7fc4d97b927346a3d7a335b1f7517e133c8260405161086591906127d7565b60405180910390a15b6000835a61087a611ecb565b5a61088361215c565b6040516020016108959392919061283c565b6040516020818303038152906040528051906020012060008181526020819052909150600190604090206001816108ca611e6b565b8160ff021916908315150217906108df611f11565b50505050505050505050505050565b60036108f8611e6b565b81565b60608484848460405160240161091494939291906128a2565b604051601f1981830301815260409190915263cbd4ece960e01b6020820180516001600160e01b031690911790529050949350505050565b60405162461bcd60e51b815260040161096490612bce565b604051809103906105d9611e00565b600061097e82610998565b801561098f575061098f8383610a8d565b90505b92915050565b6000806109d760405160408082019052601881527f4f564d5f5374617465436f6d6d69746d656e74436861696e000000000000000060208201526102b6565b90506001600160a01b038116634d69ee578451856020015186604001516040518463ffffffff1660e01b8152600401610a12939291906128ea565b6020604051808303818680610a25611f5f565b158015610a3a57600080610a37611e00565b50505b505a610a44611fab565b5050505050158015610a63573d6000803e3d6000610a60611e00565b50505b50505050604051601f3d908101601f19168201604052610a8691908101906126d1565b9392505050565b60008083610acd60405160408082019052601a81527f4f564d5f4c3243726f7373446f6d61696e4d657373656e67657200000000000060208201526102b6565b604051602001610ade92919061280a565b604051602081830303815290604052805190602001206000604051602001610b079291906127e0565b604051602081830303815290604052805190602001209050600080610b55602160991b604051602001610b3a91906127bf565b60405160208183030381529060405286606001518751610bf9565b9092509050600182151514610b8e5760405162461bcd60e51b8152600401610b7c90612a29565b60405180910390610b8b611e00565b50505b6000610b9982610c22565b9050610bee84604051602001610baf91906127d7565b6040516020818303038152906040526001604051602001610bd09190612876565b60405160208183030381529060405288608001518460400151610cb4565b979650505050505050565b600060606000610c0886610cd8565b9050610c15818686610d08565b9250925050935093915050565b610c2a6121a2565b6000610c3583610de3565b90506040518060800160405280610c5f83600081518110610c5257fe5b6020026020010151610df6565b8152602001610c7483600181518110610c5257fe5b8152602001610c9683600281518110610c8957fe5b6020026020010151610dfd565b8152602001610cab83600381518110610c8957fe5b90529392505050565b600080610cc086610cd8565b9050610cce81868686610f0a565b9695505050505050565b60608180519060200120604051602001610cf291906127d7565b6040516020818303038152906040529050919050565b600060606000610d1785610f30565b90506000806000610d29848a8961100f565b925092509250600082511590508080610d3f5750815b610d985760405162461bcd60e51b815260206004820152601a60248201527f50726f76696465642070726f6f6620697320696e76616c69642e000000000000604482015260640160405180910390610d95611e00565b50505b600081610db2576040516020810160405260008152610dd1565b610dd1866001870381518110610dc457fe5b60200260200101516113d6565b919b919a509098505050505050505050565b6060610992610df1836113f3565b61141b565b6000610992825b6000602182511115610e5e5760405162461bcd60e51b815260206004820152601a60248201527f496e76616c696420524c5020627974657333322076616c75652e000000000000604482015260640160405180910390610e5b611e00565b50505b6000806000610e6c856115a7565b919450925090506000816001811115610e8157fe5b14610edb5760405162461bcd60e51b815260206004820152601a60248201527f496e76616c696420524c5020627974657333322076616c75652e000000000000604482015260640160405180910390610ed8611e00565b50505b60008386602001510190506000815190506020841015610cce5760208490036101000a90049695505050505050565b6000806000610f1a878686610d08565b91509150818015610bee5750610bee8682611902565b60606000610f3d83610de3565b90506000815167ffffffffffffffff81118015610f6257600080610f5f611e00565b50505b50604051908082528060200260200182016040528015610f9c57816020015b610f896121c8565b815260200190600190039081610f815790505b50905060005b8251811015611007576000610fc9848381518110610fbc57fe5b602002602001015161191c565b90506040518060400160405280828152602001610fe583610de3565b9052838381518110610ff357fe5b602090810291909101015250600101610fa2565b509392505050565b6000606081808061101f876119b3565b90508560008061102d6121c8565b60005b8c518110156113ae578c818151811061104557fe5b602002602001015160019790970196938301939150836110bc5784825180519060200120146110b75760405162461bcd60e51b8152602060048201526011602482015270092dcecc2d8d2c840e4dedee840d0c2e6d607b1b6044820152606401604051809103906110b4611e00565b50505b61118c565b6020825151106111275784825180519060200120146110b75760405162461bcd60e51b815260206004820152601b60248201527f496e76616c6964206c6172676520696e7465726e616c206861736800000000006044820152606401604051809103906110b4611e00565b846111328351611ab3565b1461118c5760405162461bcd60e51b815260206004820152601a60248201527f496e76616c696420696e7465726e616c206e6f64652068617368000000000000604482015260640160405180910390611189611e00565b50505b601160208301515114156111f55785518414156111a8576113ae565b60008685815181106111b657fe5b602001015160f81c9050600060208401518260ff16815181106111d557fe5b602002602001015190506111e881611ae9565b96506001945050506113a6565b6002826020015151141561135157600061120e83611b1c565b905060008160008151811061121f57fe5b602001015160f81c905060018116600203600061123f8460ff8416611b3a565b9050600061124d8b8a611b3a565b9050600061125b8383611b67565b905060ff851660021480611272575060ff85166003145b156112a4578083511480156112875750808251145b1561129157988901985b50600160ff1b99506113ae945050505050565b60ff851615806112b7575060ff85166001145b1561130757825181146112d75750600160ff1b99506113ae945050505050565b6112f888602001516001815181106112eb57fe5b6020026020010151611ae9565b9a5097506113a6945050505050565b60405162461bcd60e51b8152600401808060200182810382526026815260200180612c936026913960400191505060405180910390611344611e00565b50505050505050506113a6565b60405162461bcd60e51b815260206004820152601d60248201527f526563656976656420616e20756e706172736561626c65206e6f64652e0000006044820152606401604051809103906113a3611e00565b50505b600101611030565b50600160ff1b8414866113c18786611b3a565b909e909d50909b509950505050505050505050565b6060610992826020015160018460200151510381518110610fbc57fe5b6113fb6121df565b602082016040518060400160405280845181526020019190915292915050565b6060600080611429846115a7565b9193509091506001905081600181111561143f57fe5b146114995760405162461bcd60e51b815260206004820152601760248201527f496e76616c696420524c50206c6973742076616c75652e000000000000000000604482015260640160405180910390611496611e00565b50505b600060206040519080825280602002602001820160405280156114d657816020015b6114c36121df565b8152602001906001900390816114bb5790505b5090506000835b865181101561159c576020821061152e5760405162461bcd60e51b815260040180806020018281038252602a815260200180612c69602a91396040019150506040518091039061152b611e00565b50505b6000806115566040516040808201905280858c51038152602001858c602001510190526115a7565b509150915060405180604001604052808383018152602001848b6020015101905285858151811061158357fe5b60209081029190910101526001939093019201016114dd565b508152949350505050565b60008080808451116116085760405162461bcd60e51b815260206004820152601860248201527f524c50206974656d2063616e6e6f74206265206e756c6c2e0000000000000000604482015260640160405180910390611605611e00565b50505b6000846020015190506000815160001a9050607f81116116355760006001600094509450945050506118fb565b60b781116116b157607f1981018087511161169f5760405162461bcd60e51b815260206004820152601960248201527f496e76616c696420524c502073686f727420737472696e672e0000000000000060448201526064016040518091039061169c611e00565b50505b600195509350600092506118fb915050565b60bf81116117a15760b61981018087511161171b5760405162461bcd60e51b815260206004820152601f60248201527f496e76616c696420524c50206c6f6e6720737472696e67206c656e6774682e00604482015260640160405180910390611718611e00565b50505b6000816020036101000a600185015104905081810188511161178c5760405162461bcd60e51b815260206004820152601860248201527f496e76616c696420524c50206c6f6e6720737472696e672e0000000000000000604482015260640160405180910390611789611e00565b50505b600190910195509350600092506118fb915050565b60f7811161181c5760bf1981018087511161180b5760405162461bcd60e51b815260206004820152601760248201527f496e76616c696420524c502073686f7274206c6973742e000000000000000000604482015260640160405180910390611808611e00565b50505b6001955093508492506118fb915050565b60f61981018087511161187e5760405162461bcd60e51b815260206004820152601d60248201527f496e76616c696420524c50206c6f6e67206c697374206c656e6774682e00000060448201526064016040518091039061187b611e00565b50505b6000816020036101000a60018501510490508181018851116118e85760405162461bcd60e51b815260206004820152601660248201527524b73b30b634b210292628103637b733903634b9ba1760511b6044820152606401604051809103906118e5611e00565b50505b60019182019650945092506118fb915050565b9193909250565b600081805190602001208380519060200120149392505050565b6060600080600061192c856115a7565b91945092509050600081600181111561194157fe5b1461199b5760405162461bcd60e51b815260206004820152601860248201527f496e76616c696420524c502062797465732076616c75652e0000000000000000604482015260640160405180910390611998611e00565b50505b6119aa85602001518484611bc7565b95945050505050565b60606000825160020267ffffffffffffffff811180156119db576000806119d8611e00565b50505b50604051818152601f19601f8301168101602001604052908015611a06576020820181803683370190505b50905060005b8351811015611aac576004848281518110611a2357fe5b60200101516001600160f81b031916901c826002830281518110611a4357fe5b60200101906001600160f81b031916908160001a9053506010848281518110611a6857fe5b602001015160f81c81611a7757fe5b0660f81b828260020260010181518110611a8d57fe5b60200101906001600160f81b031916908160001a905350600101611a0c565b5092915050565b6000602082511015611acf576000602083015191506103dc9050565b60208201825160208110156103d0576000806103cd611e00565b60006060602083511015611b0757611b0083611c79565b9050611b13565b611b108361191c565b90505b610a8681611ab3565b6060610992611b358360200151600081518110610fbc57fe5b6119b3565b606081835103611b595760405160208101604052600081529050610992565b61098f838384865103611c84565b6000805b808451118015611b7b5750808351115b8015611bba5750828181518110611b8e57fe5b60200101516001600160f81b031916848281518110611ba957fe5b60200101516001600160f81b031916145b1561098f57600101611b6b565b606060008267ffffffffffffffff81118015611beb57600080611be8611e00565b50505b50604051818152601f19601f8301168101602001604052908015611c16576020820181803683370190505b5090508051611c26579050610a86565b8484016020820160005b60208604811015611c51578251825260209283019290910190600101611c30565b50600019601f86166020036101000a0180825116811984511617909152509095945050505050565b606061099282611ded565b60608182601f011015611cd75760405162461bcd60e51b815260206004820152600e60248201526d736c6963655f6f766572666c6f7760901b604482015260640160405180910390611cd4611e00565b50505b828284011015611d275760405162461bcd60e51b815260206004820152600e60248201526d736c6963655f6f766572666c6f7760901b604482015260640160405180910390611d24611e00565b50505b81830184511015611d7b5760405162461bcd60e51b8152602060048201526011602482015270736c6963655f6f75744f66426f756e647360781b604482015260640160405180910390611d78611e00565b50505b606082158015611d9a5760405191506000825260208201604052611de4565b6040519150601f8416801560200281840101858101878315602002848b0101015b81831015611dd3578051835260209283019201611dbb565b5050858452601f01601f1916604052505b50949350505050565b6060610992826020015160008451611bc7565b632a2a7adb598160e01b8152600481016020815285602082015260005b86811015611e38578086015182820160400152602001611e1d565b506020828760640184336000905af158600e01573d6000803e3d6000fd5b3d6001141558600a015760016000f35b505050565b6303daa959598160e01b8152836004820152602081602483336000905af158600e01573d6000803e3d6000fd5b3d6001141558600a015760016000f35b8051935060005b6040811015611ec657600082820152602001611eaf565b505050565b6373509064598160e01b8152602081600483336000905af158600e01573d6000803e3d6000fd5b3d6001141558600a015760016000f35b80516000825293506020611eaf565b6322bd64c0598160e01b8152836004820152846024820152600081604483336000905af158600e01573d6000803e3d6000fd5b3d6001141558600a015760016000f35b600081526020611eaf565b638435035b598160e01b8152836004820152602081602483336000905af158600e01573d6000803e3d6000fd5b3d6001141558600a015760016000f35b80516000825293506020611eaf565b638540661f598160e01b8152611fdc565b8080831115610992575090919050565b8080831015610992575090919050565b836004820152846024820152606060448201528660648201526084810160005b88811015612014578088015182820152602001611ffc565b506060828960a40184336000905af158600e01573d6000803e3d6000fd5b3d6001141558600a015760016000f35b815160408301513d6000853e8b8b82606087013350600060045af150596120698d3d611fcc565b8c016120758187611fbc565b5b8281101561208a5760008152602001612076565b50929c50505050505050565b6385979f76598160e01b8152836004820152846024820152606060448201528760648201526084810160005b898110156120da5780890151828201526020016120c2565b506060828a60a40184336000905af158600e01573d6000803e3d6000fd5b3d6001141558600a015760016000f35b815160408301513d6000853e8c8c82606087013350600060045af1505961212f8e3d611fcc565b8d0161213b8187611fbc565b5b82811015612150576000815260200161213c565b50929d50505050505050565b635a98c361598160e01b8152602081600483336000905af158600e01573d6000803e3d6000fd5b3d6001141558600a015760016000f35b80516000825293506020611eaf565b604051608081016040908152600080835260208301819052908201819052606082015290565b604051604080820190526060808252602082015290565b604051604080820190526000808252602082015290565b600067ffffffffffffffff83111561220a57fe5b61221d601f8401601f1916602001612c14565b905082815283838301111561223a57600080612237611e00565b50505b828260208301376000602084830101529392505050565b80356001600160a01b03811681146103dc5760008061226e611e00565b5050919050565b600082601f83011261228e57808161228b611e00565b50505b61098f838335602085016121f6565b600060a082840312156122b75780816122b4611e00565b50505b60405160a0810167ffffffffffffffff82821081831117156122d557fe5b8160405282935084358352602085013560208401526040850135604084015260608501356060840152608085013591508082111561231b57600080612318611e00565b50505b5061232885828601612275565b6080830152505092915050565b60006040828403121561234f57808161234c611e00565b50505b6040516040810167ffffffffffffffff828210818311171561236d57fe5b816040528293508435835260209150818501358181111561239657600080612393611e00565b50505b8501601f810187136123b0576000806123ad611e00565b50505b8035828111156123bc57fe5b83810292506123cc848401612c14565b8181528481019083860185850187018b10156123f0576000806123ed611e00565b50505b600095505b838610156124135780358352600195909501949186019186016123f5565b5080868801525050505050505092915050565b803563ffffffff811681146103dc5760008061226e611e00565b60006020828403121561245a578081612457611e00565b50505b61098f82612251565b600080600080600060a08688031215612483578081612480611e00565b50505b61248c86612251565b945061249a60208701612251565b9350604086013567ffffffffffffffff808211156124bf5782836124bc611e00565b50505b6124cb89838a01612275565b94506060880135935060808801359150808211156124f05782836124ed611e00565b50505b9087019060a0828a03121561250c578283612509611e00565b50505b61251660a0612c14565b82358152602083013582811115612534578485612531611e00565b50505b6125408b82860161229d565b60208301525060408301358281111561256057848561255d611e00565b50505b61256c8b828601612335565b60408301525060608301358281111561258c578485612589611e00565b50505b6125988b828601612275565b6060830152506080830135828111156125b85784856125b5611e00565b50505b6125c48b828601612275565b6080830152508093505050509295509295909350565b600080600080600060a086880312156125fa5780816125f7611e00565b50505b61260386612251565b945061261160208701612251565b9350604086013567ffffffffffffffff811115612635578182612632611e00565b50505b61264188828901612275565b9350506060860135915061265760808701612426565b90509295509295909350565b60008060006060848603121561268057828361267d611e00565b50505b61268984612251565b9250602084013567ffffffffffffffff8111156126ad5782836126aa611e00565b50505b6126b986828701612275565b9250506126c860408501612426565b90509250925092565b6000602082840312156126eb5780816126e8611e00565b50505b8151801515811461098f578182612700611e00565b50509392505050565b600060208284031215612723578081612720611e00565b50505b5035919050565b600060208284031215612744578081612741611e00565b50505b813567ffffffffffffffff811115612763578182612760611e00565b50505b8201601f8101841361277c578182612779611e00565b50505b61278b848235602084016121f6565b949350505050565b600081518084526127ab816020860160208601612c3c565b601f01601f19169290920160200192915050565b60609190911b6001600160601b031916815260140190565b90815260200190565b918252602082015260400190565b60008251612800818460208701612c3c565b9190910192915050565b6000835161281c818460208801612c3c565b60609390931b6001600160601b0319169190920190815260140192915050565b6000845161284e818460208901612c3c565b60609490941b6001600160601b03191691909301908152601481019190915260340192915050565b60f89190911b6001600160f81b031916815260010190565b6001600160a01b0391909116815260200190565b6001600160a01b038581168252841660208201526080604082018190526000906128ce90830185612793565b905082606083015295945050505050565b901515815260200190565b6000848252602060608184015284516060840152808501516080840152604085015160a0840152606085015160c0840152608085015160a060e0850152612935610100850182612793565b9050838103604085015260408101855182528286015160408484015281815180845260608501915085830194508693505b808410156129865784518252938501936001939093019290850190612966565b509998505050505050505050565b60006020825261098f6020830184612793565b6020808252601f908201527f78446f6d61696e4d65737361676553656e646572206973206e6f742073657400604082015260600190565b6020808252602b908201527f50726f7669646564206d6573736167652068617320616c72656164792062656560408201526a37103932b1b2b4bb32b21760a91b606082015260800190565b6020808252604d908201527f4d6573736167652070617373696e67207072656465706c6f7920686173206e6f60408201527f74206265656e20696e697469616c697a6564206f7220696e76616c696420707260608201526c37b7b310383937bb34b232b21760991b608082015260a00190565b6020808252602b908201527f50726f7669646564206d65737361676520686173206e6f7420616c726561647960408201526a103132b2b71039b2b73a1760a91b606082015260800190565b60208082526036908201527f4f6e6c79204f564d5f4c324d65737361676552656c617965722063616e2072656040820152753630bc90261916ba3796a6189036b2b9b9b0b3b2b99760511b606082015260800190565b60208082526027908201527f50726f7669646564206d65737361676520636f756c64206e6f742062652076656040820152663934b334b2b21760c91b606082015260800190565b6020808252602a908201527f4c3143726f7373446f6d61696e4d657373656e67657220616c72656164792069604082015269373a34b0b634bd32b21760b11b606082015260800190565b60208082526026908201527f53656e64696e67207669612074686973206d657373656e6765722069732064696040820152651cd8589b195960d21b606082015260800190565b6000604051905081810181811067ffffffffffffffff82111715612c3457fe5b604052919050565b60005b83811015612c57578082015183820152602001612c3f565b838111156105d9575050600091015256fe50726f766964656420524c50206c6973742065786365656473206d6178206c697374206c656e6774682e52656365697665642061206e6f6465207769746820616e20756e6b6e6f776e20707265666978",
  "linkReferences": {},
  "deployedLinkReferences": {}
}