{
  "_format": "hh-sol-artifact-1",
  "contractName": "TestLib_OVMCodec",
  "sourceName": "contracts/test-libraries/codec/TestLib_OVMCodec.sol",
  "abi": [
    {
      "inputs": [
        {
          "internalType": "bytes",
          "name": "_transaction",
          "type": "bytes"
        },
        {
          "internalType": "bool",
          "name": "_isEthSignedMessage",
          "type": "bool"
        }
      ],
      "name": "decodeEIP155Transaction",
      "outputs": [
        {
          "components": [
            {
              "internalType": "uint256",
              "name": "nonce",
              "type": "uint256"
            },
            {
              "internalType": "uint256",
              "name": "gasPrice",
              "type": "uint256"
            },
            {
              "internalType": "uint256",
              "name": "gasLimit",
              "type": "uint256"
            },
            {
              "internalType": "address",
              "name": "to",
              "type": "address"
            },
            {
              "internalType": "uint256",
              "name": "value",
              "type": "uint256"
            },
            {
              "internalType": "bytes",
              "name": "data",
              "type": "bytes"
            },
            {
              "internalType": "uint256",
              "name": "chainId",
              "type": "uint256"
            }
          ],
          "internalType": "struct Lib_OVMCodec.EIP155Transaction",
          "name": "_decoded",
          "type": "tuple"
        }
      ],
      "stateMutability": "pure",
      "type": "function"
    },
    {
      "inputs": [
        {
          "internalType": "bytes",
          "name": "_transaction",
          "type": "bytes"
        },
        {
          "internalType": "uint256",
          "name": "_chainId",
          "type": "uint256"
        }
      ],
      "name": "decompressEIP155Transaction",
      "outputs": [
        {
          "components": [
            {
              "internalType": "uint256",
              "name": "nonce",
              "type": "uint256"
            },
            {
              "internalType": "uint256",
              "name": "gasPrice",
              "type": "uint256"
            },
            {
              "internalType": "uint256",
              "name": "gasLimit",
              "type": "uint256"
            },
            {
              "internalType": "address",
              "name": "to",
              "type": "address"
            },
            {
              "internalType": "uint256",
              "name": "value",
              "type": "uint256"
            },
            {
              "internalType": "bytes",
              "name": "data",
              "type": "bytes"
            },
            {
              "internalType": "uint256",
              "name": "chainId",
              "type": "uint256"
            }
          ],
          "internalType": "struct Lib_OVMCodec.EIP155Transaction",
          "name": "_decompressed",
          "type": "tuple"
        }
      ],
      "stateMutability": "nonpayable",
      "type": "function"
    },
    {
      "inputs": [
        {
          "components": [
            {
              "internalType": "uint256",
              "name": "timestamp",
              "type": "uint256"
            },
            {
              "internalType": "uint256",
              "name": "blockNumber",
              "type": "uint256"
            },
            {
              "internalType": "enum Lib_OVMCodec.QueueOrigin",
              "name": "l1QueueOrigin",
              "type": "uint8"
            },
            {
              "internalType": "address",
              "name": "l1TxOrigin",
              "type": "address"
            },
            {
              "internalType": "address",
              "name": "entrypoint",
              "type": "address"
            },
            {
              "internalType": "uint256",
              "name": "gasLimit",
              "type": "uint256"
            },
            {
              "internalType": "bytes",
              "name": "data",
              "type": "bytes"
            }
          ],
          "internalType": "struct Lib_OVMCodec.Transaction",
          "name": "_transaction",
          "type": "tuple"
        }
      ],
      "name": "encodeTransaction",
      "outputs": [
        {
          "internalType": "bytes",
          "name": "_encoded",
          "type": "bytes"
        }
      ],
      "stateMutability": "pure",
      "type": "function"
    },
    {
      "inputs": [
        {
          "components": [
            {
              "internalType": "uint256",
              "name": "timestamp",
              "type": "uint256"
            },
            {
              "internalType": "uint256",
              "name": "blockNumber",
              "type": "uint256"
            },
            {
              "internalType": "enum Lib_OVMCodec.QueueOrigin",
              "name": "l1QueueOrigin",
              "type": "uint8"
            },
            {
              "internalType": "address",
              "name": "l1TxOrigin",
              "type": "address"
            },
            {
              "internalType": "address",
              "name": "entrypoint",
              "type": "address"
            },
            {
              "internalType": "uint256",
              "name": "gasLimit",
              "type": "uint256"
            },
            {
              "internalType": "bytes",
              "name": "data",
              "type": "bytes"
            }
          ],
          "internalType": "struct Lib_OVMCodec.Transaction",
          "name": "_transaction",
          "type": "tuple"
        }
      ],
      "name": "hashTransaction",
      "outputs": [
        {
          "internalType": "bytes32",
          "name": "_hash",
          "type": "bytes32"
        }
      ],
      "stateMutability": "pure",
      "type": "function"
    }
  ],
  "bytecode": "0x608060405234801561001057600080fd5b5061128b806100206000396000f3fe608060405234801561001057600080fd5b506004361061004c5760003560e01c80633170de2a1461005157806369a956521461007a578063759730621461009a578063a3e6d2fc146100ad575b600080fd5b61006461005f366004610f38565b6100cd565b604051610071919061113d565b60405180910390f35b61008d610088366004610ef5565b6100e0565b6040516100719190611159565b61008d6100a8366004610ea1565b6100fb565b6100c06100bb366004610f38565b61010d565b6040516100719190611146565b60006100d882610118565b90505b919050565b6100e8610dd6565b6100f28383610131565b90505b92915050565b610103610dd6565b6100f283836101c2565b60606100d882610319565b600061012382610319565b805190602001209050919050565b610139610dd6565b6040518060e0016040528061014f85600661036a565b62ffffff16815260200161016485600361036a565b62ffffff16620f424002815260200161017e85600061036a565b62ffffff168152602001610193856009610411565b6001600160a01b03168152602001600081526020016101b385601d6104c1565b81526020019290925250919050565b6101ca610dd6565b811561023857600080600080600080888060200190518101906101ed9190610ff4565b6040805160e0810182529687526020870194909452928501939093526001600160a01b0390921660608401526000608084015260a083015260c082015296506100f595505050505050565b6000610243846104f2565b90506040518060e0016040528061026d8360008151811061026057fe5b6020026020010151610505565b81526020016102828360018151811061026057fe5b81526020016102978360028151811061026057fe5b81526020016102b9836003815181106102ac57fe5b6020026020010151610510565b6001600160a01b031681526020016102d78360048151811061026057fe5b81526020016102f9836005815181106102ec57fe5b6020026020010151610584565b815260200161030e8360068151811061026057fe5b8152509150506100f5565b6060816000015182602001518360400151846060015185608001518660a001518760c0015160405160200161035497969594939291906110ce565b6040516020818303038152906040529050919050565b6000818260030110156103b8576040805162461bcd60e51b8152602060048201526011602482015270746f55696e7432345f6f766572666c6f7760781b604482015290519081900360640190fd5b8160030183511015610408576040805162461bcd60e51b8152602060048201526014602482015273746f55696e7432345f6f75744f66426f756e647360601b604482015290519081900360640190fd5b50016003015190565b600081826014011015610460576040805162461bcd60e51b8152602060048201526012602482015271746f416464726573735f6f766572666c6f7760701b604482015290519081900360640190fd5b81601401835110156104b1576040805162461bcd60e51b8152602060048201526015602482015274746f416464726573735f6f75744f66426f756e647360581b604482015290519081900360640190fd5b500160200151600160601b900490565b606081835103600014156104e457506040805160208101909152600081526100f5565b6100f2838384865103610613565b60606100d861050083610766565b61078b565b60006100d882610901565b805160009060011415610525575060006100db565b815160151461057b576040805162461bcd60e51b815260206004820152601a60248201527f496e76616c696420524c5020616464726573732076616c75652e000000000000604482015290519081900360640190fd5b6100d882610505565b60606000806000610594856109fb565b9194509250905060008160018111156105a957fe5b146105fb576040805162461bcd60e51b815260206004820152601860248201527f496e76616c696420524c502062797465732076616c75652e0000000000000000604482015290519081900360640190fd5b61060a85602001518484610d24565b95945050505050565b60608182601f01101561065e576040805162461bcd60e51b815260206004820152600e60248201526d736c6963655f6f766572666c6f7760901b604482015290519081900360640190fd5b8282840110156106a6576040805162461bcd60e51b815260206004820152600e60248201526d736c6963655f6f766572666c6f7760901b604482015290519081900360640190fd5b818301845110156106f2576040805162461bcd60e51b8152602060048201526011602482015270736c6963655f6f75744f66426f756e647360781b604482015290519081900360640190fd5b606082158015610711576040519150600082526020820160405261075b565b6040519150601f8416801560200281840101858101878315602002848b0101015b8183101561074a578051835260209283019201610732565b5050858452601f01601f1916604052505b5090505b9392505050565b61076e610e1c565b506040805180820190915281518152602082810190820152919050565b6060600080610799846109fb565b919350909150600190508160018111156107af57fe5b14610801576040805162461bcd60e51b815260206004820152601760248201527f496e76616c696420524c50206c6973742076616c75652e000000000000000000604482015290519081900360640190fd5b6040805160208082526104208201909252600091816020015b610822610e1c565b81526020019060019003908161081a5790505090506000835b86518110156108f657602082106108835760405162461bcd60e51b815260040180806020018281038252602a815260200180611255602a913960400191505060405180910390fd5b6000806108af6040518060400160405280858c60000151038152602001858c60200151018152506109fb565b509150915060405180604001604052808383018152602001848b60200151018152508585815181106108dd57fe5b602090810291909101015260019390930192010161083b565b508152949350505050565b600060218260000151111561095d576040805162461bcd60e51b815260206004820152601a60248201527f496e76616c696420524c5020627974657333322076616c75652e000000000000604482015290519081900360640190fd5b600080600061096b856109fb565b91945092509050600081600181111561098057fe5b146109d2576040805162461bcd60e51b815260206004820152601a60248201527f496e76616c696420524c5020627974657333322076616c75652e000000000000604482015290519081900360640190fd5b6020808601518401805190918410156109f15760208490036101000a90045b9695505050505050565b600080600080846000015111610a58576040805162461bcd60e51b815260206004820152601860248201527f524c50206974656d2063616e6e6f74206265206e756c6c2e0000000000000000604482015290519081900360640190fd5b6020840151805160001a607f8111610a7d576000600160009450945094505050610d1d565b60b78111610af2578551607f198201908110610ae0576040805162461bcd60e51b815260206004820152601960248201527f496e76616c696420524c502073686f727420737472696e672e00000000000000604482015290519081900360640190fd5b60019550935060009250610d1d915050565b60bf8111610bd657855160b6198201908110610b55576040805162461bcd60e51b815260206004820152601f60248201527f496e76616c696420524c50206c6f6e6720737472696e67206c656e6774682e00604482015290519081900360640190fd5b6000816020036101000a6001850151049050808201886000015111610bc1576040805162461bcd60e51b815260206004820152601860248201527f496e76616c696420524c50206c6f6e6720737472696e672e0000000000000000604482015290519081900360640190fd5b60019091019550935060009250610d1d915050565b60f78111610c4a57855160bf198201908110610c39576040805162461bcd60e51b815260206004820152601760248201527f496e76616c696420524c502073686f7274206c6973742e000000000000000000604482015290519081900360640190fd5b600195509350849250610d1d915050565b855160f6198201908110610ca5576040805162461bcd60e51b815260206004820152601d60248201527f496e76616c696420524c50206c6f6e67206c697374206c656e6774682e000000604482015290519081900360640190fd5b6000816020036101000a6001850151049050808201886000015111610d0a576040805162461bcd60e51b815260206004820152601660248201527524b73b30b634b210292628103637b733903634b9ba1760511b604482015290519081900360640190fd5b6001918201965094509250610d1d915050565b9193909250565b606060008267ffffffffffffffff81118015610d3f57600080fd5b506040519080825280601f01601f191660200182016040528015610d6a576020820181803683370190505b509050805160001415610d7e57905061075f565b8484016020820160005b60208604811015610da9578251825260209283019290910190600101610d88565b5060006001602087066020036101000a039050808251168119845116178252839450505050509392505050565b6040518060e0016040528060008152602001600081526020016000815260200160006001600160a01b031681526020016000815260200160608152602001600081525090565b604051806040016040528060008152602001600081525090565b80356100db8161123c565b600082601f830112610e51578081fd5b8135610e64610e5f826111ea565b6111c6565b818152846020838601011115610e78578283fd5b816020850160208301379081016020019190915292915050565b8035600281106100db57600080fd5b60008060408385031215610eb3578182fd5b823567ffffffffffffffff811115610ec9578283fd5b610ed585828601610e41565b92505060208301358015158114610eea578182fd5b809150509250929050565b60008060408385031215610f07578182fd5b823567ffffffffffffffff811115610f1d578283fd5b610f2985828601610e41565b95602094909401359450505050565b600060208284031215610f49578081fd5b813567ffffffffffffffff80821115610f60578283fd5b9083019060e08286031215610f73578283fd5b610f7d60e06111c6565b8235815260208301356020820152610f9760408401610e92565b6040820152610fa860608401610e36565b6060820152610fb960808401610e36565b608082015260a083013560a082015260c083013582811115610fd9578485fd5b610fe587828601610e41565b60c08301525095945050505050565b60008060008060008060c0878903121561100c578182fd5b8651955060208701519450604087015193506060870151925060808701516110338161123c565b60a088015190925067ffffffffffffffff81111561104f578182fd5b8701601f8101891361105f578182fd5b805161106d610e5f826111ea565b8181528a6020838501011115611081578384fd5b61109282602083016020860161120c565b8093505050509295509295509295565b600081518084526110ba81602086016020860161120c565b601f01601f19169290920160200192915050565b6000888252876020830152600287106110e357fe5b8660f81b60408301526bffffffffffffffffffffffff19808760601b166041840152808660601b16605584015250836069830152825161112a81608985016020870161120c565b9190910160890198975050505050505050565b90815260200190565b6000602082526100f260208301846110a2565b60006020825282516020830152602083015160408301526040830151606083015260018060a01b036060840151166080830152608083015160a083015260a083015160e060c08401526111b06101008401826110a2565b905060c084015160e08401528091505092915050565b60405181810167ffffffffffffffff811182821017156111e257fe5b604052919050565b600067ffffffffffffffff8211156111fe57fe5b50601f01601f191660200190565b60005b8381101561122757818101518382015260200161120f565b83811115611236576000848401525b50505050565b6001600160a01b038116811461125157600080fd5b5056fe50726f766964656420524c50206c6973742065786365656473206d6178206c697374206c656e6774682ea164736f6c6343000706000a",
  "linkReferences": {},
  "deployedLinkReferences": {}
}