{
  "_format": "hh-sol-artifact-1",
  "contractName": "OVM_L1CustomCrossDomainMessenger",
  "sourceName": "contracts/optimistic-ethereum/OVM/bridge/messaging/OVM_L1CustomCrossDomainMessenger.sol",
  "abi": [
    {
      "inputs": [],
      "stateMutability": "nonpayable",
      "type": "constructor"
    },
    {
      "anonymous": false,
      "inputs": [
        {
          "indexed": false,
          "internalType": "bytes32",
          "name": "msgHash",
          "type": "bytes32"
        }
      ],
      "name": "FailedRelayedMessage",
      "type": "event"
    },
    {
      "anonymous": false,
      "inputs": [
        {
          "indexed": false,
          "internalType": "bytes32",
          "name": "msgHash",
          "type": "bytes32"
        }
      ],
      "name": "RelayedMessage",
      "type": "event"
    },
    {
      "anonymous": false,
      "inputs": [
        {
          "indexed": false,
          "internalType": "bytes",
          "name": "message",
          "type": "bytes"
        }
      ],
      "name": "SentMessage",
      "type": "event"
    },
    {
      "inputs": [
        {
          "internalType": "address",
          "name": "_libAddressManager",
          "type": "address"
        }
      ],
      "name": "initialize",
      "outputs": [],
      "stateMutability": "nonpayable",
      "type": "function"
    },
    {
      "inputs": [],
      "name": "libAddressManager",
      "outputs": [
        {
          "internalType": "contract Lib_AddressManager",
          "name": "",
          "type": "address"
        }
      ],
      "stateMutability": "view",
      "type": "function"
    },
    {
      "inputs": [],
      "name": "messageNonce",
      "outputs": [
        {
          "internalType": "uint256",
          "name": "",
          "type": "uint256"
        }
      ],
      "stateMutability": "view",
      "type": "function"
    },
    {
      "inputs": [
        {
          "internalType": "address",
          "name": "_target",
          "type": "address"
        },
        {
          "internalType": "address",
          "name": "_sender",
          "type": "address"
        },
        {
          "internalType": "bytes",
          "name": "_message",
          "type": "bytes"
        },
        {
          "internalType": "uint256",
          "name": "_messageNonce",
          "type": "uint256"
        },
        {
          "components": [
            {
              "internalType": "bytes32",
              "name": "stateRoot",
              "type": "bytes32"
            },
            {
              "components": [
                {
                  "internalType": "uint256",
                  "name": "batchIndex",
                  "type": "uint256"
                },
                {
                  "internalType": "bytes32",
                  "name": "batchRoot",
                  "type": "bytes32"
                },
                {
                  "internalType": "uint256",
                  "name": "batchSize",
                  "type": "uint256"
                },
                {
                  "internalType": "uint256",
                  "name": "prevTotalElements",
                  "type": "uint256"
                },
                {
                  "internalType": "bytes",
                  "name": "extraData",
                  "type": "bytes"
                }
              ],
              "internalType": "struct Lib_OVMCodec.ChainBatchHeader",
              "name": "stateRootBatchHeader",
              "type": "tuple"
            },
            {
              "components": [
                {
                  "internalType": "uint256",
                  "name": "index",
                  "type": "uint256"
                },
                {
                  "internalType": "bytes32[]",
                  "name": "siblings",
                  "type": "bytes32[]"
                }
              ],
              "internalType": "struct Lib_OVMCodec.ChainInclusionProof",
              "name": "stateRootProof",
              "type": "tuple"
            },
            {
              "internalType": "bytes",
              "name": "stateTrieWitness",
              "type": "bytes"
            },
            {
              "internalType": "bytes",
              "name": "storageTrieWitness",
              "type": "bytes"
            }
          ],
          "internalType": "struct iOVM_L1CrossDomainMessenger.L2MessageInclusionProof",
          "name": "_proof",
          "type": "tuple"
        }
      ],
      "name": "relayMessage",
      "outputs": [],
      "stateMutability": "nonpayable",
      "type": "function"
    },
    {
      "inputs": [
        {
          "internalType": "bytes32",
          "name": "",
          "type": "bytes32"
        }
      ],
      "name": "relayedMessages",
      "outputs": [
        {
          "internalType": "bool",
          "name": "",
          "type": "bool"
        }
      ],
      "stateMutability": "view",
      "type": "function"
    },
    {
      "inputs": [
        {
          "internalType": "address",
          "name": "_target",
          "type": "address"
        },
        {
          "internalType": "address",
          "name": "_sender",
          "type": "address"
        },
        {
          "internalType": "bytes",
          "name": "_message",
          "type": "bytes"
        },
        {
          "internalType": "uint256",
          "name": "_messageNonce",
          "type": "uint256"
        },
        {
          "internalType": "uint32",
          "name": "_gasLimit",
          "type": "uint32"
        }
      ],
      "name": "replayMessage",
      "outputs": [],
      "stateMutability": "nonpayable",
      "type": "function"
    },
    {
      "inputs": [
        {
          "internalType": "string",
          "name": "_name",
          "type": "string"
        }
      ],
      "name": "resolve",
      "outputs": [
        {
          "internalType": "address",
          "name": "",
          "type": "address"
        }
      ],
      "stateMutability": "view",
      "type": "function"
    },
    {
      "inputs": [
        {
          "internalType": "address",
          "name": "_target",
          "type": "address"
        },
        {
          "internalType": "bytes",
          "name": "_message",
          "type": "bytes"
        },
        {
          "internalType": "uint32",
          "name": "_gasLimit",
          "type": "uint32"
        }
      ],
      "name": "sendMessage",
      "outputs": [],
      "stateMutability": "nonpayable",
      "type": "function"
    },
    {
      "inputs": [
        {
          "internalType": "bytes32",
          "name": "",
          "type": "bytes32"
        }
      ],
      "name": "sentMessages",
      "outputs": [
        {
          "internalType": "bool",
          "name": "",
          "type": "bool"
        }
      ],
      "stateMutability": "view",
      "type": "function"
    },
    {
      "inputs": [
        {
          "internalType": "bytes32",
          "name": "",
          "type": "bytes32"
        }
      ],
      "name": "successfulMessages",
      "outputs": [
        {
          "internalType": "bool",
          "name": "",
          "type": "bool"
        }
      ],
      "stateMutability": "view",
      "type": "function"
    },
    {
      "inputs": [],
      "name": "xDomainMessageSender",
      "outputs": [
        {
          "internalType": "address",
          "name": "",
          "type": "address"
        }
      ],
      "stateMutability": "view",
      "type": "function"
    }
  ],
  "bytecode": "0x6080604052600480546001600160a01b03191661dead17905534801561002457600080fd5b50600580546001600160a01b03191690556124a4806100446000396000f3fe608060405234801561001057600080fd5b50600436106100a95760003560e01c8063706ceab611610071578063706ceab61461011c57806382e3702d1461012f578063b1b1b20914610142578063c4d66de814610155578063d7fd19dd14610168578063ecc704281461017b576100a9565b806321d800ec146100ae578063299ca478146100d75780633dbb202b146100ec578063461a4478146101015780636e296e4514610114575b600080fd5b6100c16100bc366004611f0c565b610190565b6040516100ce91906120be565b60405180910390f35b6100df6101a5565b6040516100ce919061206d565b6100ff6100fa366004611e90565b6101b4565b005b6100df61010f366004611f24565b610243565b6100df61031f565b6100ff61012a366004611e19565b610368565b6100c161013d366004611f0c565b6103cf565b6100c1610150366004611f0c565b6103e4565b6100ff610163366004611cd0565b6103f9565b6100ff610176366004611cea565b61044f565b610183610673565b6040516100ce9190611fb6565b60006020819052908152604090205460ff1681565b6005546001600160a01b031681565b60006101c4843385600354610679565b60038054600190810190915581516020808401919091206000908152600290915260409020805460ff1916909117905590506102068163ffffffff84166106c6565b7f0ee9ffdb2334d78de97ffb066b23a352a4d35180cefb36589d663fbb1eb6f326816040516102359190612173565b60405180910390a150505050565b60055460405163bf40fac160e01b81526020600482018181528451602484015284516000946001600160a01b03169363bf40fac1938793928392604401918501908083838b5b838110156102a1578181015183820152602001610289565b50505050905090810190601f1680156102ce5780820380516001836020036101000a031916815260200191505b509250505060206040518083038186803b1580156102eb57600080fd5b505afa1580156102ff573d6000803e3d6000fd5b505050506040513d602081101561031557600080fd5b505190505b919050565b6004546000906001600160a01b031661dead14156103585760405162461bcd60e51b815260040161034f90612186565b60405180910390fd5b506004546001600160a01b031690565b600061037686868686610679565b805160208083019190912060009081526002909152604090205490915060ff1615156001146103b75760405162461bcd60e51b815260040161034f9061227b565b6103c7818363ffffffff166106c6565b505050505050565b60026020526000908152604090205460ff1681565b60016020526000908152604090205460ff1681565b6005546001600160a01b0316156104225760405162461bcd60e51b815260040161034f90612363565b600580546001600160a01b039092166001600160a01b03199283161790556004805490911661dead179055565b60006104866040518060400160405280601481526020017327ab26afa61926b2b9b9b0b3b2a932b630bcb2b960611b815250610243565b90506001600160a01b038116156104bf57336001600160a01b038216146104bf5760405162461bcd60e51b815260040161034f906122c6565b60006104cd87878787610679565b90506104d981846106de565b15156001146104fa5760405162461bcd60e51b815260040161034f9061231c565b80516020808301919091206000818152600190925260409091205460ff16156105355760405162461bcd60e51b815260040161034f906121bd565b600480546001600160a01b0319166001600160a01b03898116919091179091556040516000918a1690610569908990611fcd565b6000604051808303816000865af19150503d80600081146105a6576040519150601f19603f3d011682016040523d82523d6000602084013e6105ab565b606091505b5050600480546001600160a01b03191661dead17905590508015156001141561062257600082815260016020819052604091829020805460ff19169091179055517f4641df4a962071e12719d8c8c8e5ac7fc4d97b927346a3d7a335b1f7517e133c90610619908490611fb6565b60405180910390a15b60008333436040516020016106399392919061201b565b60408051601f1981840301815291815281516020928301206000908152918290529020805460ff1916600117905550505050505050505050565b60035481565b6060848484846040516024016106929493929190612081565b60408051601f198184030181529190526020810180516001600160e01b031663cbd4ece960e01b1790529050949350505050565b60405162461bcd60e51b815260040161034f906123ad565b60006106e982610703565b80156106fa57506106fa83836107d8565b90505b92915050565b6000806107446040518060400160405280601881526020017f4f564d5f5374617465436f6d6d69746d656e74436861696e0000000000000000815250610243565b835160208501516040808701519051634d69ee5760e01b81529394506001600160a01b03851693634d69ee579361078193909290916004016120c9565b60206040518083038186803b15801561079957600080fd5b505afa1580156107ad573d6000803e3d6000fd5b505050506040513d601f19601f820116820180604052508101906107d19190611eec565b9392505050565b6000808361081a6040518060400160405280601a81526020017f4f564d5f4c3243726f7373446f6d61696e4d657373656e676572000000000000815250610243565b60405160200161082b929190611fe9565b604051602081830303815290604052805190602001206000604051602001610854929190611fbf565b6040516020818303038152906040528051906020012090506000806108a3602160991b6040516020016108879190611f9e565b60408051601f1981840301815291905260608701518751610935565b90925090506001821515146108ca5760405162461bcd60e51b815260040161034f90612208565b60006108d58261095e565b905061092a846040516020016108eb9190611fb6565b604051602081830303815290604052600160405160200161090c9190612055565b604051602081830303815290604052886080015184604001516109f0565b979650505050505050565b60006060600061094486610a14565b9050610951818686610a44565b9250925050935093915050565b610966611a86565b600061097183610b17565b9050604051806080016040528061099b8360008151811061098e57fe5b6020026020010151610b2a565b81526020016109b08360018151811061098e57fe5b81526020016109d2836002815181106109c557fe5b6020026020010151610b31565b81526020016109e7836003815181106109c557fe5b90529392505050565b6000806109fc86610a14565b9050610a0a81868686610c2a565b9695505050505050565b60608180519060200120604051602001610a2e9190611fb6565b6040516020818303038152906040529050919050565b600060606000610a5385610c50565b90506000806000610a65848a89610d27565b81519295509093509150158080610a795750815b610aca576040805162461bcd60e51b815260206004820152601a60248201527f50726f76696465642070726f6f6620697320696e76616c69642e000000000000604482015290519081900360640190fd5b600081610ae65760405180602001604052806000815250610b05565b610b05866001870381518110610af857fe5b60200260200101516110cd565b919b919a509098505050505050505050565b60606106fd610b25836110e9565b61110e565b60006106fd825b6000602182600001511115610b8d576040805162461bcd60e51b815260206004820152601a60248201527f496e76616c696420524c5020627974657333322076616c75652e000000000000604482015290519081900360640190fd5b6000806000610b9b85611284565b919450925090506000816001811115610bb057fe5b14610c02576040805162461bcd60e51b815260206004820152601a60248201527f496e76616c696420524c5020627974657333322076616c75652e000000000000604482015290519081900360640190fd5b602080860151840180519091841015610a0a5760208490036101000a90049695505050505050565b6000806000610c3a878686610a44565b9150915081801561092a575061092a86826115ad565b60606000610c5d83610b17565b90506000815167ffffffffffffffff81118015610c7957600080fd5b50604051908082528060200260200182016040528015610cb357816020015b610ca0611aad565b815260200190600190039081610c985790505b50905060005b8251811015610d1f576000610ce0848381518110610cd357fe5b60200260200101516115c3565b90506040518060400160405280828152602001610cfc83610b17565b815250838381518110610d0b57fe5b602090810291909101015250600101610cb9565b509392505050565b60006060818080610d3787611652565b905085600080610d45611aad565b60005b8c518110156110a5578c8181518110610d5d57fe5b6020026020010151915082840193506001870196508360001415610dd157815180516020909101208514610dcc576040805162461bcd60e51b8152602060048201526011602482015270092dcecc2d8d2c840e4dedee840d0c2e6d607b1b604482015290519081900360640190fd5b610e98565b815151602011610e3857815180516020909101208514610dcc576040805162461bcd60e51b815260206004820152601b60248201527f496e76616c6964206c6172676520696e7465726e616c20686173680000000000604482015290519081900360640190fd5b84610e46836000015161174f565b14610e98576040805162461bcd60e51b815260206004820152601a60248201527f496e76616c696420696e7465726e616c206e6f64652068617368000000000000604482015290519081900360640190fd5b60208201515160111415610f07578551841415610eb4576110a5565b6000868581518110610ec257fe5b602001015160f81c60f81b60f81c9050600083602001518260ff1681518110610ee757fe5b60200260200101519050610efa8161177b565b965060019450505061109d565b60028260200151511415611050576000610f20836117b1565b9050600081600081518110610f3157fe5b016020015160f81c9050600181166002036000610f518460ff84166117cf565b90506000610f5f8b8a6117cf565b90506000610f6d8383611800565b905060ff851660021480610f84575060ff85166003145b15610fb657808351148015610f995750808251145b15610fa357988901985b50600160ff1b99506110a5945050505050565b60ff85161580610fc9575060ff85166001145b156110195782518114610fe95750600160ff1b99506110a5945050505050565b61100a8860200151600181518110610ffd57fe5b602002602001015161177b565b9a50975061109d945050505050565b60405162461bcd60e51b81526004018080602001828103825260268152602001806124726026913960400191505060405180910390fd5b6040805162461bcd60e51b815260206004820152601d60248201527f526563656976656420616e20756e706172736561626c65206e6f64652e000000604482015290519081900360640190fd5b600101610d48565b50600160ff1b8414866110b887866117cf565b909e909d50909b509950505050505050505050565b602081015180516060916106fd916000198101908110610cd357fe5b6110f1611ac7565b506040805180820190915281518152602082810190820152919050565b606060008061111c84611284565b9193509091506001905081600181111561113257fe5b14611184576040805162461bcd60e51b815260206004820152601760248201527f496e76616c696420524c50206c6973742076616c75652e000000000000000000604482015290519081900360640190fd5b6040805160208082526104208201909252600091816020015b6111a5611ac7565b81526020019060019003908161119d5790505090506000835b865181101561127957602082106112065760405162461bcd60e51b815260040180806020018281038252602a815260200180612448602a913960400191505060405180910390fd5b6000806112326040518060400160405280858c60000151038152602001858c6020015101815250611284565b509150915060405180604001604052808383018152602001848b602001510181525085858151811061126057fe5b60209081029190910101526001939093019201016111be565b508152949350505050565b6000806000808460000151116112e1576040805162461bcd60e51b815260206004820152601860248201527f524c50206974656d2063616e6e6f74206265206e756c6c2e0000000000000000604482015290519081900360640190fd5b6020840151805160001a607f81116113065760006001600094509450945050506115a6565b60b7811161137b578551607f198201908110611369576040805162461bcd60e51b815260206004820152601960248201527f496e76616c696420524c502073686f727420737472696e672e00000000000000604482015290519081900360640190fd5b600195509350600092506115a6915050565b60bf811161145f57855160b61982019081106113de576040805162461bcd60e51b815260206004820152601f60248201527f496e76616c696420524c50206c6f6e6720737472696e67206c656e6774682e00604482015290519081900360640190fd5b6000816020036101000a600185015104905080820188600001511161144a576040805162461bcd60e51b815260206004820152601860248201527f496e76616c696420524c50206c6f6e6720737472696e672e0000000000000000604482015290519081900360640190fd5b600190910195509350600092506115a6915050565b60f781116114d357855160bf1982019081106114c2576040805162461bcd60e51b815260206004820152601760248201527f496e76616c696420524c502073686f7274206c6973742e000000000000000000604482015290519081900360640190fd5b6001955093508492506115a6915050565b855160f619820190811061152e576040805162461bcd60e51b815260206004820152601d60248201527f496e76616c696420524c50206c6f6e67206c697374206c656e6774682e000000604482015290519081900360640190fd5b6000816020036101000a6001850151049050808201886000015111611593576040805162461bcd60e51b815260206004820152601660248201527524b73b30b634b210292628103637b733903634b9ba1760511b604482015290519081900360640190fd5b60019182019650945092506115a6915050565b9193909250565b8051602091820120825192909101919091201490565b606060008060006115d385611284565b9194509250905060008160018111156115e857fe5b1461163a576040805162461bcd60e51b815260206004820152601860248201527f496e76616c696420524c502062797465732076616c75652e0000000000000000604482015290519081900360640190fd5b61164985602001518484611866565b95945050505050565b60606000825160020267ffffffffffffffff8111801561167157600080fd5b506040519080825280601f01601f19166020018201604052801561169c576020820181803683370190505b50905060005b83518110156117485760048482815181106116b957fe5b602001015160f81c60f81b6001600160f81b031916901c8282600202815181106116df57fe5b60200101906001600160f81b031916908160001a905350601084828151811061170457fe5b016020015160f81c8161171357fe5b0660f81b82826002026001018151811061172957fe5b60200101906001600160f81b031916908160001a9053506001016116a2565b5092915050565b60006020825110156117665750602081015161031a565b81806020019051602081101561031557600080fd5b6000606060208360000151101561179c5761179583611914565b90506117a8565b6117a5836115c3565b90505b6107d18161174f565b60606106fd6117ca8360200151600081518110610cd357fe5b611652565b606081835103600014156117f257506040805160208101909152600081526106fd565b6106fa83838486510361191f565b6000805b8084511180156118145750808351115b8015611859575082818151811061182757fe5b602001015160f81c60f81b6001600160f81b03191684828151811061184857fe5b01602001516001600160f81b031916145b156106fa57600101611804565b606060008267ffffffffffffffff8111801561188157600080fd5b506040519080825280601f01601f1916602001820160405280156118ac576020820181803683370190505b5090508051600014156118c05790506107d1565b8484016020820160005b602086048110156118eb5782518252602092830192909101906001016118ca565b5080519151601f959095166020036101000a600019019182169119909416179092525092915050565b60606106fd82611a70565b60608182601f01101561196a576040805162461bcd60e51b815260206004820152600e60248201526d736c6963655f6f766572666c6f7760901b604482015290519081900360640190fd5b8282840110156119b2576040805162461bcd60e51b815260206004820152600e60248201526d736c6963655f6f766572666c6f7760901b604482015290519081900360640190fd5b818301845110156119fe576040805162461bcd60e51b8152602060048201526011602482015270736c6963655f6f75744f66426f756e647360781b604482015290519081900360640190fd5b606082158015611a1d5760405191506000825260208201604052611a67565b6040519150601f8416801560200281840101858101878315602002848b0101015b81831015611a56578051835260209283019201611a3e565b5050858452601f01601f1916604052505b50949350505050565b60606106fd826020015160008460000151611866565b60408051608081018252600080825260208201819052918101829052606081019190915290565b604051806040016040528060608152602001606081525090565b604051806040016040528060008152602001600081525090565b600067ffffffffffffffff831115611af557fe5b611b08601f8401601f19166020016123f3565b9050828152838383011115611b1c57600080fd5b828260208301376000602084830101529392505050565b80356001600160a01b038116811461031a57600080fd5b600082601f830112611b5a578081fd5b6106fa83833560208501611ae1565b600060a08284031215611b7a578081fd5b60405160a0810167ffffffffffffffff8282108183111715611b9857fe5b81604052829350843583526020850135602084015260408501356040840152606085013560608401526080850135915080821115611bd557600080fd5b50611be285828601611b4a565b6080830152505092915050565b600060408284031215611c00578081fd5b6040516040810167ffffffffffffffff8282108183111715611c1e57fe5b8160405282935084358352602091508185013581811115611c3e57600080fd5b8501601f81018713611c4f57600080fd5b803582811115611c5b57fe5b8381029250611c6b8484016123f3565b8181528481019083860185850187018b1015611c8657600080fd5b600095505b83861015611ca9578035835260019590950194918601918601611c8b565b5080868801525050505050505092915050565b803563ffffffff8116811461031a57600080fd5b600060208284031215611ce1578081fd5b6106fa82611b33565b600080600080600060a08688031215611d01578081fd5b611d0a86611b33565b9450611d1860208701611b33565b9350604086013567ffffffffffffffff80821115611d34578283fd5b611d4089838a01611b4a565b9450606088013593506080880135915080821115611d5c578283fd5b9087019060a0828a031215611d6f578283fd5b611d7960a06123f3565b82358152602083013582811115611d8e578485fd5b611d9a8b828601611b69565b602083015250604083013582811115611db1578485fd5b611dbd8b828601611bef565b604083015250606083013582811115611dd4578485fd5b611de08b828601611b4a565b606083015250608083013582811115611df7578485fd5b611e038b828601611b4a565b6080830152508093505050509295509295909350565b600080600080600060a08688031215611e30578081fd5b611e3986611b33565b9450611e4760208701611b33565b9350604086013567ffffffffffffffff811115611e62578182fd5b611e6e88828901611b4a565b93505060608601359150611e8460808701611cbc565b90509295509295909350565b600080600060608486031215611ea4578283fd5b611ead84611b33565b9250602084013567ffffffffffffffff811115611ec8578283fd5b611ed486828701611b4a565b925050611ee360408501611cbc565b90509250925092565b600060208284031215611efd578081fd5b815180151581146106fa578182fd5b600060208284031215611f1d578081fd5b5035919050565b600060208284031215611f35578081fd5b813567ffffffffffffffff811115611f4b578182fd5b8201601f81018413611f5b578182fd5b611f6a84823560208401611ae1565b949350505050565b60008151808452611f8a816020860160208601612417565b601f01601f19169290920160200192915050565b60609190911b6001600160601b031916815260140190565b90815260200190565b918252602082015260400190565b60008251611fdf818460208701612417565b9190910192915050565b60008351611ffb818460208801612417565b60609390931b6001600160601b0319169190920190815260140192915050565b6000845161202d818460208901612417565b60609490941b6001600160601b03191691909301908152601481019190915260340192915050565b60f89190911b6001600160f81b031916815260010190565b6001600160a01b0391909116815260200190565b6001600160a01b038581168252841660208201526080604082018190526000906120ad90830185611f72565b905082606083015295945050505050565b901515815260200190565b6000848252602060608184015284516060840152808501516080840152604085015160a0840152606085015160c0840152608085015160a060e0850152612114610100850182611f72565b9050838103604085015260408101855182528286015160408484015281815180845260608501915085830194508693505b808410156121655784518252938501936001939093019290850190612145565b509998505050505050505050565b6000602082526106fa6020830184611f72565b6020808252601f908201527f78446f6d61696e4d65737361676553656e646572206973206e6f742073657400604082015260600190565b6020808252602b908201527f50726f7669646564206d6573736167652068617320616c72656164792062656560408201526a37103932b1b2b4bb32b21760a91b606082015260800190565b6020808252604d908201527f4d6573736167652070617373696e67207072656465706c6f7920686173206e6f60408201527f74206265656e20696e697469616c697a6564206f7220696e76616c696420707260608201526c37b7b310383937bb34b232b21760991b608082015260a00190565b6020808252602b908201527f50726f7669646564206d65737361676520686173206e6f7420616c726561647960408201526a103132b2b71039b2b73a1760a91b606082015260800190565b60208082526036908201527f4f6e6c79204f564d5f4c324d65737361676552656c617965722063616e2072656040820152753630bc90261916ba3796a6189036b2b9b9b0b3b2b99760511b606082015260800190565b60208082526027908201527f50726f7669646564206d65737361676520636f756c64206e6f742062652076656040820152663934b334b2b21760c91b606082015260800190565b6020808252602a908201527f4c3143726f7373446f6d61696e4d657373656e67657220616c72656164792069604082015269373a34b0b634bd32b21760b11b606082015260800190565b60208082526026908201527f53656e64696e67207669612074686973206d657373656e6765722069732064696040820152651cd8589b195960d21b606082015260800190565b60405181810167ffffffffffffffff8111828210171561240f57fe5b604052919050565b60005b8381101561243257818101518382015260200161241a565b83811115612441576000848401525b5050505056fe50726f766964656420524c50206c6973742065786365656473206d6178206c697374206c656e6774682e52656365697665642061206e6f6465207769746820616e20756e6b6e6f776e20707265666978a164736f6c6343000706000a",
  "linkReferences": {},
  "deployedLinkReferences": {}
}